{"abi":[{"type":"constructor","inputs":[{"name":"coordinator","type":"address","internalType":"address"}],"stateMutability":"nonpayable"},{"type":"receive","stateMutability":"payable"},{"type":"function","name":"COORDINATOR","inputs":[],"outputs":[{"name":"","type":"address","internalType":"contract IRequestResponseCoordinator"}],"stateMutability":"view"},{"type":"function","name":"rawFulfillDataRequest","inputs":[{"name":"requestId","type":"uint256","internalType":"uint256"},{"name":"response","type":"uint128","internalType":"uint128"}],"outputs":[],"stateMutability":"nonpayable"},{"type":"function","name":"requestData","inputs":[{"name":"accId","type":"uint64","internalType":"uint64"},{"name":"callbackGasLimit","type":"uint32","internalType":"uint32"}],"outputs":[{"name":"requestId","type":"uint256","internalType":"uint256"}],"stateMutability":"nonpayable"},{"type":"function","name":"requestDataDirectPayment","inputs":[{"name":"callbackGasLimit","type":"uint32","internalType":"uint32"}],"outputs":[{"name":"requestId","type":"uint256","internalType":"uint256"}],"stateMutability":"payable"},{"type":"function","name":"sResponse","inputs":[],"outputs":[{"name":"","type":"uint128","internalType":"uint128"}],"stateMutability":"view"},{"type":"error","name":"OnlyCoordinatorCanFulfill","inputs":[{"name":"have","type":"address","internalType":"address"},{"name":"want","type":"address","internalType":"address"}]}],"bytecode":{"object":"0x60a060405234801561000f575f5ffd5b50604051611bd9380380611bd9833981810160405281019061003191906102e7565b808073ffffffffffffffffffffffffffffffffffffffff1660808173ffffffffffffffffffffffffffffffffffffffff16815250506080515063a185c35f60e01b5f5f60405160200161008390610366565b6040516020818303038152906040528051906020012081526020019081526020015f205f6101000a81548163ffffffff021916908360e01c02179055506080515063d1bf555c60e01b5f5f6040516020016100dd906103c4565b6040516020818303038152906040528051906020012081526020019081526020015f205f6101000a81548163ffffffff021916908360e01c021790555060805150637961841760e01b5f5f60405160200161013790610422565b6040516020818303038152906040528051906020012081526020019081526020015f205f6101000a81548163ffffffff021916908360e01c02179055506080515063f30be55160e01b5f5f60405160200161019190610480565b6040516020818303038152906040528051906020012081526020019081526020015f205f6101000a81548163ffffffff021916908360e01c02179055506080515063bf8542a960e01b5f5f6040516020016101eb906104de565b6040516020818303038152906040528051906020012081526020019081526020015f205f6101000a81548163ffffffff021916908360e01c02179055506080515063c6f3401360e01b5f5f6040516020016102459061053c565b6040516020818303038152906040528051906020012081526020019081526020015f205f6101000a81548163ffffffff021916908360e01c02179055505050610550565b5f5ffd5b5f73ffffffffffffffffffffffffffffffffffffffff82169050919050565b5f6102b68261028d565b9050919050565b6102c6816102ac565b81146102d0575f5ffd5b50565b5f815190506102e1816102bd565b92915050565b5f602082840312156102fc576102fb610289565b5b5f610309848285016102d3565b91505092915050565b5f81905092915050565b7f75696e74313238000000000000000000000000000000000000000000000000005f82015250565b5f610350600783610312565b915061035b8261031c565b600782019050919050565b5f61037082610344565b9150819050919050565b7f696e7432353600000000000000000000000000000000000000000000000000005f82015250565b5f6103ae600683610312565b91506103b98261037a565b600682019050919050565b5f6103ce826103a2565b9150819050919050565b7f626f6f6c000000000000000000000000000000000000000000000000000000005f82015250565b5f61040c600483610312565b9150610417826103d8565b600482019050919050565b5f61042c82610400565b9150819050919050565b7f737472696e6700000000000000000000000000000000000000000000000000005f82015250565b5f61046a600683610312565b915061047582610436565b600682019050919050565b5f61048a8261045e565b9150819050919050565b7f62797465733332000000000000000000000000000000000000000000000000005f82015250565b5f6104c8600783610312565b91506104d382610494565b600782019050919050565b5f6104e8826104bc565b9150819050919050565b7f62797465730000000000000000000000000000000000000000000000000000005f82015250565b5f610526600583610312565b9150610531826104f2565b600582019050919050565b5f6105468261051a565b9150819050919050565b6080516116556105845f395f818161014201528181610167015281816103c60152818161060a01526106fd01526116555ff3fe60806040526004361061004d575f3560e01c80633b2bcbf11461005857806345b9b6fb146100825780636d797371146100aa578063d3afa1eb146100d4578063f9b843ae1461011057610054565b3661005457005b5f5ffd5b348015610063575f5ffd5b5061006c610140565b6040516100799190610dab565b60405180910390f35b34801561008d575f5ffd5b506100a860048036038101906100a39190610e40565b610164565b005b3480156100b5575f5ffd5b506100be610209565b6040516100cb9190610e8d565b60405180910390f35b3480156100df575f5ffd5b506100fa60048036038101906100f59190610f1c565b61022a565b6040516101079190610f69565b60405180910390f35b61012a60048036038101906101259190610f82565b61046e565b6040516101379190610f69565b60405180910390f35b7f000000000000000000000000000000000000000000000000000000000000000081565b5f7f000000000000000000000000000000000000000000000000000000000000000090508073ffffffffffffffffffffffffffffffffffffffff163373ffffffffffffffffffffffffffffffffffffffff16146101fa5733816040517f1cf993f40000000000000000000000000000000000000000000000000000000081526004016101f1929190610fcd565b60405180910390fd5b61020483836106b3565b505050565b60015f9054906101000a90046fffffffffffffffffffffffffffffffff1681565b5f5f60405160200161023b90611048565b6040516020818303038152906040528051906020012090505f600190505f610262836106ef565b90506102c66040518060400160405280600381526020017f67657400000000000000000000000000000000000000000000000000000000008152506040518060800160405280604981526020016115d760499139836107519092919063ffffffff16565b6103456040518060400160405280600481526020017f70617468000000000000000000000000000000000000000000000000000000008152506040518060400160405280601181526020017f5241572c4554482c5553442c5052494345000000000000000000000000000000815250836107519092919063ffffffff16565b6103c46040518060400160405280600581526020017f706f7731300000000000000000000000000000000000000000000000000000008152506040518060400160405280600181526020017f3800000000000000000000000000000000000000000000000000000000000000815250836107519092919063ffffffff16565b7f000000000000000000000000000000000000000000000000000000000000000073ffffffffffffffffffffffffffffffffffffffff1663752f8c14828789866040518563ffffffff1660e01b81526004016104239493929190611222565b6020604051808303815f875af115801561043f573d5f5f3e3d5ffd5b505050506040513d601f19601f820116820180604052508101906104639190611280565b935050505092915050565b5f5f60405160200161047f90611048565b6040516020818303038152906040528051906020012090505f600190505f6104a6836106ef565b905061050a6040518060400160405280600381526020017f67657400000000000000000000000000000000000000000000000000000000008152506040518060600160405280603781526020016115a060379139836107519092919063ffffffff16565b6105896040518060400160405280600481526020017f70617468000000000000000000000000000000000000000000000000000000008152506040518060400160405280600f81526020017f646174612c72617465732c555344540000000000000000000000000000000000815250836107519092919063ffffffff16565b6106086040518060400160405280600581526020017f706f7731300000000000000000000000000000000000000000000000000000008152506040518060400160405280600181526020017f3800000000000000000000000000000000000000000000000000000000000000815250836107519092919063ffffffff16565b7f000000000000000000000000000000000000000000000000000000000000000073ffffffffffffffffffffffffffffffffffffffff1663a4dfe92f34838886306040518663ffffffff1660e01b815260040161066894939291906112ab565b60206040518083038185885af1158015610684573d5f5f3e3d5ffd5b50505050506040513d601f19601f820116820180604052508101906106a99190611280565b9350505050919050565b8060015f6101000a8154816fffffffffffffffffffffffffffffffff02191690836fffffffffffffffffffffffffffffffff1602179055505050565b6106f7610cb2565b61074a827f00000000000000000000000000000000000000000000000000000000000000005f5f8681526020019081526020015f205f9054906101000a900460e01b84610784909392919063ffffffff16565b9050919050565b61076882846080015161083390919063ffffffff16565b61077f81846080015161083390919063ffffffff16565b505050565b61078c610cb2565b61079c8560800151610100610858565b5083855f01818152505082856020019073ffffffffffffffffffffffffffffffffffffffff16908173ffffffffffffffffffffffffffffffffffffffff16815250508185604001907bffffffffffffffffffffffffffffffffffffffffffffffffffffffff191690817bffffffffffffffffffffffffffffffffffffffffffffffffffffffff191681525050849050949350505050565b61084082600383516108c0565b6108538183610a4590919063ffffffff16565b505050565b610860610d18565b5f60208361086e9190611322565b1461089a576020826108809190611322565b602061088c919061137f565b8261089791906113b2565b91505b818360200181815250506040518084525f81528281016020016040525082905092915050565b60178167ffffffffffffffff16116108f7576108f18160058460ff16901b60ff161784610a6690919063ffffffff16565b50610a40565b60ff8167ffffffffffffffff161161094d57610926601860058460ff16901b1784610a6690919063ffffffff16565b506109478167ffffffffffffffff16600185610a859092919063ffffffff16565b50610a3f565b61ffff8167ffffffffffffffff16116109a45761097d601960058460ff16901b1784610a6690919063ffffffff16565b5061099e8167ffffffffffffffff16600285610a859092919063ffffffff16565b50610a3e565b63ffffffff8167ffffffffffffffff16116109fd576109d6601a60058460ff16901b1784610a6690919063ffffffff16565b506109f78167ffffffffffffffff16600485610a859092919063ffffffff16565b50610a3d565b610a1a601b60058460ff16901b1784610a6690919063ffffffff16565b50610a3b8167ffffffffffffffff16600885610a859092919063ffffffff16565b505b5b5b5b505050565b610a4d610d18565b610a5e83845f015151848551610aa6565b905092915050565b610a6e610d18565b610a7d83845f01515184610b92565b905092915050565b610a8d610d18565b610a9d84855f0151518585610be8565b90509392505050565b610aae610d18565b8251821115610abb575f5ffd5b84602001518285610acc91906113b2565b1115610b0157610b00856002610af188602001518887610aec91906113b2565b610c75565b610afb91906113e5565b610c90565b5b5f5f865180518760208301019350808887011115610b1f5787860182525b60208701925050505b60208410610b665780518252602082610b4191906113b2565b9150602081610b5091906113b2565b9050602084610b5f919061137f565b9350610b28565b5f6001856020036101000a03905080198251168184511681811785525050508692505050949350505050565b610b9a610d18565b83602001518310610bc057610bbf8460028660200151610bba91906113e5565b610c90565b5b83518051602085830101848153818603610bdb576001820183525b5050508390509392505050565b610bf0610d18565b84602001518483610c0191906113b2565b1115610c2957610c288560028685610c1991906113b2565b610c2391906113e5565b610c90565b5b5f600183610100610c3a9190611555565b610c44919061137f565b90508551838682010185831982511617815281518588011115610c675784870182525b505085915050949350505050565b5f81831115610c8657829050610c8a565b8190505b92915050565b5f825f01519050610ca18383610858565b50610cac8382610a45565b50505050565b6040518060a001604052805f81526020015f73ffffffffffffffffffffffffffffffffffffffff1681526020015f7bffffffffffffffffffffffffffffffffffffffffffffffffffffffff191681526020015f8152602001610d12610d18565b81525090565b6040518060400160405280606081526020015f81525090565b5f73ffffffffffffffffffffffffffffffffffffffff82169050919050565b5f819050919050565b5f610d73610d6e610d6984610d31565b610d50565b610d31565b9050919050565b5f610d8482610d59565b9050919050565b5f610d9582610d7a565b9050919050565b610da581610d8b565b82525050565b5f602082019050610dbe5f830184610d9c565b92915050565b5f5ffd5b5f819050919050565b610dda81610dc8565b8114610de4575f5ffd5b50565b5f81359050610df581610dd1565b92915050565b5f6fffffffffffffffffffffffffffffffff82169050919050565b610e1f81610dfb565b8114610e29575f5ffd5b50565b5f81359050610e3a81610e16565b92915050565b5f5f60408385031215610e5657610e55610dc4565b5b5f610e6385828601610de7565b9250506020610e7485828601610e2c565b9150509250929050565b610e8781610dfb565b82525050565b5f602082019050610ea05f830184610e7e565b92915050565b5f67ffffffffffffffff82169050919050565b610ec281610ea6565b8114610ecc575f5ffd5b50565b5f81359050610edd81610eb9565b92915050565b5f63ffffffff82169050919050565b610efb81610ee3565b8114610f05575f5ffd5b50565b5f81359050610f1681610ef2565b92915050565b5f5f60408385031215610f3257610f31610dc4565b5b5f610f3f85828601610ecf565b9250506020610f5085828601610f08565b9150509250929050565b610f6381610dc8565b82525050565b5f602082019050610f7c5f830184610f5a565b92915050565b5f60208284031215610f9757610f96610dc4565b5b5f610fa484828501610f08565b91505092915050565b5f610fb782610d31565b9050919050565b610fc781610fad565b82525050565b5f604082019050610fe05f830185610fbe565b610fed6020830184610fbe565b9392505050565b5f81905092915050565b7f75696e74313238000000000000000000000000000000000000000000000000005f82015250565b5f611032600783610ff4565b915061103d82610ffe565b600782019050919050565b5f61105282611026565b9150819050919050565b5f819050919050565b61106e8161105c565b82525050565b61107d81610fad565b82525050565b5f7fffffffff0000000000000000000000000000000000000000000000000000000082169050919050565b6110b781611083565b82525050565b6110c681610dc8565b82525050565b5f81519050919050565b5f82825260208201905092915050565b8281835e5f83830152505050565b5f601f19601f8301169050919050565b5f61110e826110cc565b61111881856110d6565b93506111288185602086016110e6565b611131816110f4565b840191505092915050565b5f604083015f8301518482035f8601526111568282611104565b915050602083015161116b60208601826110bd565b508091505092915050565b5f60a083015f83015161118b5f860182611065565b50602083015161119e6020860182611074565b5060408301516111b160408601826110ae565b5060608301516111c460608601826110bd565b50608083015184820360808601526111dc828261113c565b9150508091505092915050565b6111f281610ee3565b82525050565b61120181610ea6565b82525050565b5f60ff82169050919050565b61121c81611207565b82525050565b5f6080820190508181035f83015261123a8187611176565b905061124960208301866111e9565b61125660408301856111f8565b6112636060830184611213565b95945050505050565b5f8151905061127a81610dd1565b92915050565b5f6020828403121561129557611294610dc4565b5b5f6112a28482850161126c565b91505092915050565b5f6080820190508181035f8301526112c38187611176565b90506112d260208301866111e9565b6112df6040830185611213565b6112ec6060830184610fbe565b95945050505050565b7f4e487b71000000000000000000000000000000000000000000000000000000005f52601260045260245ffd5b5f61132c82610dc8565b915061133783610dc8565b925082611347576113466112f5565b5b828206905092915050565b7f4e487b71000000000000000000000000000000000000000000000000000000005f52601160045260245ffd5b5f61138982610dc8565b915061139483610dc8565b92508282039050818111156113ac576113ab611352565b5b92915050565b5f6113bc82610dc8565b91506113c783610dc8565b92508282019050808211156113df576113de611352565b5b92915050565b5f6113ef82610dc8565b91506113fa83610dc8565b925082820261140881610dc8565b9150828204841483151761141f5761141e611352565b5b5092915050565b5f8160011c9050919050565b5f5f8291508390505b600185111561147b5780860481111561145757611456611352565b5b60018516156114665780820291505b808102905061147485611426565b945061143b565b94509492505050565b5f82611493576001905061154e565b816114a0575f905061154e565b81600181146114b657600281146114c0576114ef565b600191505061154e565b60ff8411156114d2576114d1611352565b5b8360020a9150848211156114e9576114e8611352565b5b5061154e565b5060208310610133831016604e8410600b84101617156115245782820a90508381111561151f5761151e611352565b5b61154e565b6115318484846001611432565b9250905081840481111561154857611547611352565b5b81810290505b9392505050565b5f61155f82610dc8565b915061156a83610dc8565b92506115977fffffffffffffffffffffffffffffffffffffffffffffffffffffffffffffffff8484611484565b90509291505056fe68747470733a2f2f6170692e636f696e626173652e636f6d2f76322f65786368616e67652d72617465733f63757272656e63793d42544368747470733a2f2f6d696e2d6170692e63727970746f636f6d706172652e636f6d2f646174612f70726963656d756c746966756c6c3f6673796d733d455448267473796d733d555344a26469706673582212207445b7021bc12ffa47a7d3310cb12b9563cfa1e462afe775535be94a7719f8a864736f6c634300081e0033","linkReferences":{}},"methodIdentifiers":{"COORDINATOR()":"3b2bcbf1","rawFulfillDataRequest(uint256,uint128)":"45b9b6fb","requestData(uint64,uint32)":"d3afa1eb","requestDataDirectPayment(uint32)":"f9b843ae","sResponse()":"6d797371"},"id":42}