{"abi":[{"type":"constructor","inputs":[{"name":"_stableKRWAddress","type":"address","internalType":"address"},{"name":"_coordinator","type":"address","internalType":"address"},{"name":"_initialOwner","type":"address","internalType":"address"}],"stateMutability":"nonpayable"},{"type":"function","name":"COORDINATOR","inputs":[],"outputs":[{"name":"","type":"address","internalType":"contract IRequestResponseCoordinator"}],"stateMutability":"view"},{"type":"function","name":"STABLE_KRW_ADDRESS","inputs":[],"outputs":[{"name":"","type":"address","internalType":"contract IERC20"}],"stateMutability":"view"},{"type":"function","name":"cancelBySellerAfterDeposit","inputs":[{"name":"_tradeId","type":"uint256","internalType":"uint256"}],"outputs":[],"stateMutability":"nonpayable"},{"type":"function","name":"cancelTradeByBuyer","inputs":[{"name":"_tradeId","type":"uint256","internalType":"uint256"}],"outputs":[],"stateMutability":"nonpayable"},{"type":"function","name":"confirmDelivery","inputs":[{"name":"_tradeId","type":"uint256","internalType":"uint256"}],"outputs":[],"stateMutability":"nonpayable"},{"type":"function","name":"createTrade","inputs":[{"name":"_seller","type":"address","internalType":"address"},{"name":"_amount","type":"uint256","internalType":"uint256"},{"name":"_deliveryAddressHash","type":"bytes32","internalType":"bytes32"}],"outputs":[{"name":"tradeId","type":"uint256","internalType":"uint256"}],"stateMutability":"nonpayable"},{"type":"function","name":"deliveryTrackingJobId","inputs":[],"outputs":[{"name":"","type":"bytes32","internalType":"bytes32"}],"stateMutability":"view"},{"type":"function","name":"deposit","inputs":[{"name":"_tradeId","type":"uint256","internalType":"uint256"}],"outputs":[],"stateMutability":"nonpayable"},{"type":"function","name":"disputePeriod","inputs":[],"outputs":[{"name":"","type":"uint256","internalType":"uint256"}],"stateMutability":"view"},{"type":"function","name":"getTrade","inputs":[{"name":"_tradeId","type":"uint256","internalType":"uint256"}],"outputs":[{"name":"","type":"tuple","internalType":"struct DecentralizedTradeEscrow.Trade","components":[{"name":"buyer","type":"address","internalType":"address"},{"name":"seller","type":"address","internalType":"address"},{"name":"amount","type":"uint256","internalType":"uint256"},{"name":"status","type":"uint8","internalType":"enum DecentralizedTradeEscrow.TradeStatus"},{"name":"deliveryAddressHash","type":"bytes32","internalType":"bytes32"},{"name":"trackingNumber","type":"string","internalType":"string"},{"name":"deliveredAt","type":"uint256","internalType":"uint256"}]}],"stateMutability":"view"},{"type":"function","name":"owner","inputs":[],"outputs":[{"name":"","type":"address","internalType":"address"}],"stateMutability":"view"},{"type":"function","name":"raiseDispute","inputs":[{"name":"_tradeId","type":"uint256","internalType":"uint256"}],"outputs":[],"stateMutability":"nonpayable"},{"type":"function","name":"rawFulfillDataRequest","inputs":[{"name":"requestId","type":"uint256","internalType":"uint256"},{"name":"response","type":"uint128","internalType":"uint128"}],"outputs":[],"stateMutability":"nonpayable"},{"type":"function","name":"renounceOwnership","inputs":[],"outputs":[],"stateMutability":"nonpayable"},{"type":"function","name":"requestToTradeId","inputs":[{"name":"","type":"uint256","internalType":"uint256"}],"outputs":[{"name":"","type":"uint256","internalType":"uint256"}],"stateMutability":"view"},{"type":"function","name":"resolveDispute","inputs":[{"name":"_tradeId","type":"uint256","internalType":"uint256"},{"name":"_refundToBuyer","type":"bool","internalType":"bool"}],"outputs":[],"stateMutability":"nonpayable"},{"type":"function","name":"setDeliveryTrackingJobId","inputs":[{"name":"_jobId","type":"bytes32","internalType":"bytes32"}],"outputs":[],"stateMutability":"nonpayable"},{"type":"function","name":"setDisputePeriod","inputs":[{"name":"_newPeriod","type":"uint256","internalType":"uint256"}],"outputs":[],"stateMutability":"nonpayable"},{"type":"function","name":"submitTrackingInfo","inputs":[{"name":"_tradeId","type":"uint256","internalType":"uint256"},{"name":"_trackingNumber","type":"string","internalType":"string"},{"name":"_accId","type":"uint64","internalType":"uint64"},{"name":"_callbackGasLimit","type":"uint32","internalType":"uint32"}],"outputs":[{"name":"requestId","type":"uint256","internalType":"uint256"}],"stateMutability":"nonpayable"},{"type":"function","name":"tradeCounter","inputs":[],"outputs":[{"name":"","type":"uint256","internalType":"uint256"}],"stateMutability":"view"},{"type":"function","name":"trades","inputs":[{"name":"","type":"uint256","internalType":"uint256"}],"outputs":[{"name":"buyer","type":"address","internalType":"address"},{"name":"seller","type":"address","internalType":"address"},{"name":"amount","type":"uint256","internalType":"uint256"},{"name":"status","type":"uint8","internalType":"enum DecentralizedTradeEscrow.TradeStatus"},{"name":"deliveryAddressHash","type":"bytes32","internalType":"bytes32"},{"name":"trackingNumber","type":"string","internalType":"string"},{"name":"deliveredAt","type":"uint256","internalType":"uint256"}],"stateMutability":"view"},{"type":"function","name":"transferOwnership","inputs":[{"name":"newOwner","type":"address","internalType":"address"}],"outputs":[],"stateMutability":"nonpayable"},{"type":"function","name":"withdraw","inputs":[{"name":"_tradeId","type":"uint256","internalType":"uint256"}],"outputs":[],"stateMutability":"nonpayable"},{"type":"event","name":"DisputePeriodUpdated","inputs":[{"name":"newPeriod","type":"uint256","indexed":false,"internalType":"uint256"}],"anonymous":false},{"type":"event","name":"DisputeResolved","inputs":[{"name":"tradeId","type":"uint256","indexed":true,"internalType":"uint256"},{"name":"resolver","type":"address","indexed":true,"internalType":"address"},{"name":"refundedToBuyer","type":"bool","indexed":false,"internalType":"bool"}],"anonymous":false},{"type":"event","name":"OwnershipTransferred","inputs":[{"name":"previousOwner","type":"address","indexed":true,"internalType":"address"},{"name":"newOwner","type":"address","indexed":true,"internalType":"address"}],"anonymous":false},{"type":"event","name":"TrackingInfoSubmitted","inputs":[{"name":"tradeId","type":"uint256","indexed":true,"internalType":"uint256"},{"name":"requestId","type":"uint256","indexed":true,"internalType":"uint256"},{"name":"trackingNumber","type":"string","indexed":false,"internalType":"string"}],"anonymous":false},{"type":"event","name":"TradeCanceled","inputs":[{"name":"tradeId","type":"uint256","indexed":true,"internalType":"uint256"},{"name":"canceledBy","type":"address","indexed":true,"internalType":"address"}],"anonymous":false},{"type":"event","name":"TradeCompleted","inputs":[{"name":"tradeId","type":"uint256","indexed":true,"internalType":"uint256"}],"anonymous":false},{"type":"event","name":"TradeCreated","inputs":[{"name":"tradeId","type":"uint256","indexed":true,"internalType":"uint256"},{"name":"buyer","type":"address","indexed":true,"internalType":"address"},{"name":"seller","type":"address","indexed":true,"internalType":"address"},{"name":"amount","type":"uint256","indexed":false,"internalType":"uint256"},{"name":"deliveryAddressHash","type":"bytes32","indexed":false,"internalType":"bytes32"}],"anonymous":false},{"type":"event","name":"TradeDelivered","inputs":[{"name":"tradeId","type":"uint256","indexed":true,"internalType":"uint256"},{"name":"timestamp","type":"uint256","indexed":false,"internalType":"uint256"}],"anonymous":false},{"type":"event","name":"TradeDeposited","inputs":[{"name":"tradeId","type":"uint256","indexed":true,"internalType":"uint256"}],"anonymous":false},{"type":"event","name":"TradeDisputed","inputs":[{"name":"tradeId","type":"uint256","indexed":true,"internalType":"uint256"}],"anonymous":false},{"type":"event","name":"TradeWithdrawn","inputs":[{"name":"tradeId","type":"uint256","indexed":true,"internalType":"uint256"}],"anonymous":false},{"type":"error","name":"OnlyCoordinatorCanFulfill","inputs":[{"name":"have","type":"address","internalType":"address"},{"name":"want","type":"address","internalType":"address"}]},{"type":"error","name":"OwnableInvalidOwner","inputs":[{"name":"owner","type":"address","internalType":"address"}]},{"type":"error","name":"OwnableUnauthorizedAccount","inputs":[{"name":"account","type":"address","internalType":"address"}]},{"type":"error","name":"ReentrancyGuardReentrantCall","inputs":[]}],"bytecode":{"object":"0x60c060405234801561000f575f5ffd5b50604051614e51380380614e51833981810160405281019061003191906104e1565b80828073ffffffffffffffffffffffffffffffffffffffff1660808173ffffffffffffffffffffffffffffffffffffffff16815250506080515063a185c35f60e01b5f5f60405160200161008490610585565b6040516020818303038152906040528051906020012081526020019081526020015f205f6101000a81548163ffffffff021916908360e01c02179055506080515063d1bf555c60e01b5f5f6040516020016100de906105e3565b6040516020818303038152906040528051906020012081526020019081526020015f205f6101000a81548163ffffffff021916908360e01c021790555060805150637961841760e01b5f5f60405160200161013890610641565b6040516020818303038152906040528051906020012081526020019081526020015f205f6101000a81548163ffffffff021916908360e01c02179055506080515063f30be55160e01b5f5f6040516020016101929061069f565b6040516020818303038152906040528051906020012081526020019081526020015f205f6101000a81548163ffffffff021916908360e01c02179055506080515063bf8542a960e01b5f5f6040516020016101ec906106fd565b6040516020818303038152906040528051906020012081526020019081526020015f205f6101000a81548163ffffffff021916908360e01c02179055506080515063c6f3401360e01b5f5f6040516020016102469061075b565b6040516020818303038152906040528051906020012081526020019081526020015f205f6101000a81548163ffffffff021916908360e01c0217905550505f73ffffffffffffffffffffffffffffffffffffffff168173ffffffffffffffffffffffffffffffffffffffff16036102f4575f6040517f1e4fbdf70000000000000000000000000000000000000000000000000000000081526004016102eb919061077e565b60405180910390fd5b610303816103c060201b60201c565b5060016002819055505f73ffffffffffffffffffffffffffffffffffffffff168373ffffffffffffffffffffffffffffffffffffffff160361037a576040517f08c379a000000000000000000000000000000000000000000000000000000000815260040161037190610817565b60405180910390fd5b8273ffffffffffffffffffffffffffffffffffffffff1660a08173ffffffffffffffffffffffffffffffffffffffff168152505062093a80600781905550505050610835565b5f60015f9054906101000a900473ffffffffffffffffffffffffffffffffffffffff1690508160015f6101000a81548173ffffffffffffffffffffffffffffffffffffffff021916908373ffffffffffffffffffffffffffffffffffffffff1602179055508173ffffffffffffffffffffffffffffffffffffffff168173ffffffffffffffffffffffffffffffffffffffff167f8be0079c531659141344cd1fd0a4f28419497f9722a3daafe3b4186f6b6457e060405160405180910390a35050565b5f5ffd5b5f73ffffffffffffffffffffffffffffffffffffffff82169050919050565b5f6104b082610487565b9050919050565b6104c0816104a6565b81146104ca575f5ffd5b50565b5f815190506104db816104b7565b92915050565b5f5f5f606084860312156104f8576104f7610483565b5b5f610505868287016104cd565b9350506020610516868287016104cd565b9250506040610527868287016104cd565b9150509250925092565b5f81905092915050565b7f75696e74313238000000000000000000000000000000000000000000000000005f82015250565b5f61056f600783610531565b915061057a8261053b565b600782019050919050565b5f61058f82610563565b9150819050919050565b7f696e7432353600000000000000000000000000000000000000000000000000005f82015250565b5f6105cd600683610531565b91506105d882610599565b600682019050919050565b5f6105ed826105c1565b9150819050919050565b7f626f6f6c000000000000000000000000000000000000000000000000000000005f82015250565b5f61062b600483610531565b9150610636826105f7565b600482019050919050565b5f61064b8261061f565b9150819050919050565b7f737472696e6700000000000000000000000000000000000000000000000000005f82015250565b5f610689600683610531565b915061069482610655565b600682019050919050565b5f6106a98261067d565b9150819050919050565b7f62797465733332000000000000000000000000000000000000000000000000005f82015250565b5f6106e7600783610531565b91506106f2826106b3565b600782019050919050565b5f610707826106db565b9150819050919050565b7f62797465730000000000000000000000000000000000000000000000000000005f82015250565b5f610745600583610531565b915061075082610711565b600582019050919050565b5f61076582610739565b9150819050919050565b610778816104a6565b82525050565b5f6020820190506107915f83018461076f565b92915050565b5f82825260208201905092915050565b7f4454453a20537461626c654b525720616464726573732063616e6e6f742062655f8201527f207a65726f000000000000000000000000000000000000000000000000000000602082015250565b5f610801602583610797565b915061080c826107a7565b604082019050919050565b5f6020820190508181035f83015261082e816107f5565b9050919050565b60805160a0516145c361088e5f395f8181610a7a01528181610c5801528181610dd90152818161149b01528181611df80152611f3301525f81816112570152818161127c0152818161194c01526123ed01526145c35ff3fe608060405234801561000f575f5ffd5b506004361061014b575f3560e01c8063660d15b5116100c1578063a5c1674e1161007a578063a5c1674e1461038d578063a83ba53e146103a9578063b6b55f25146103c5578063eb0fc59c146103e1578063f2fde38b146103ff578063fd84cb971461041b5761014b565b8063660d15b5146102cb5780636984781b146102e9578063715018a61461030557806381ec8fed1461030f5780638ba193171461033f5780638da5cb5b1461036f5761014b565b806334b25ee21161011357806334b25ee214610209578063383605f3146102255780633b2bcbf11461025557806345b9b6fb14610273578063566ae9a11461028f5780635bf31d4d146102ad5761014b565b80630aa382131461014f5780631e6c598e1461016b5780632552b4ba146101a15780632db25e05146101bd5780632e1a7d4d146101ed575b5f5ffd5b61016960048036038101906101649190612ad8565b610437565b005b61018560048036038101906101809190612ad8565b6105d7565b6040516101989796959493929190612c4c565b60405180910390f35b6101bb60048036038101906101b69190612cea565b6106e5565b005b6101d760048036038101906101d29190612ad8565b6106f7565b6040516101e49190612e32565b60405180910390f35b61020760048036038101906102029190612ad8565b6108b3565b005b610223600480360381019061021e9190612e87565b610bb5565b005b61023f600480360381019061023a9190612eef565b610f99565b60405161024c9190612f3f565b60405180910390f35b61025d611255565b60405161026a9190612fb3565b60405180910390f35b61028d60048036038101906102889190613011565b611279565b005b61029761131e565b6040516102a4919061304f565b60405180910390f35b6102b5611324565b6040516102c29190612f3f565b60405180910390f35b6102d361132a565b6040516102e09190612f3f565b60405180910390f35b61030360048036038101906102fe9190612ad8565b611330565b005b61030d6115e7565b005b61032960048036038101906103249190612ad8565b6115fa565b6040516103369190612f3f565b60405180910390f35b6103596004803603810190610354919061313f565b61160f565b6040516103669190612f3f565b60405180910390f35b610377611a75565b60405161038491906131c3565b60405180910390f35b6103a760048036038101906103a29190612ad8565b611a9d565b005b6103c360048036038101906103be9190612ad8565b611c7a565b005b6103df60048036038101906103da9190612ad8565b611cc3565b005b6103e9611f31565b6040516103f691906131fc565b60405180910390f35b61041960048036038101906104149190613215565b611f55565b005b61043560048036038101906104309190612ad8565b611fd9565b005b8060055f8281526020019081526020015f205f015f9054906101000a900473ffffffffffffffffffffffffffffffffffffffff1673ffffffffffffffffffffffffffffffffffffffff163373ffffffffffffffffffffffffffffffffffffffff16146104d8576040517f08c379a00000000000000000000000000000000000000000000000000000000081526004016104cf9061328a565b60405180910390fd5b5f60055f8481526020019081526020015f2090505f60078111156104ff576104fe612b51565b5b816003015f9054906101000a900460ff16600781111561052257610521612b51565b5b14610562576040517f08c379a000000000000000000000000000000000000000000000000000000000815260040161055990613318565b60405180910390fd5b6006816003015f6101000a81548160ff0219169083600781111561058957610588612b51565b5b02179055503373ffffffffffffffffffffffffffffffffffffffff16837f5ae0ecd682344c6aaebb54d6a93dae65cff74864b6ddce7a5a18c115fb467b7560405160405180910390a3505050565b6005602052805f5260405f205f91509050805f015f9054906101000a900473ffffffffffffffffffffffffffffffffffffffff1690806001015f9054906101000a900473ffffffffffffffffffffffffffffffffffffffff1690806002015490806003015f9054906101000a900460ff169080600401549080600501805461065e90613363565b80601f016020809104026020016040519081016040528092919081815260200182805461068a90613363565b80156106d55780601f106106ac576101008083540402835291602001916106d5565b820191905f5260205f20905b8154815290600101906020018083116106b857829003601f168201915b5050505050908060060154905087565b6106ed612163565b8060038190555050565b6106ff6129a9565b60055f8381526020019081526020015f206040518060e00160405290815f82015f9054906101000a900473ffffffffffffffffffffffffffffffffffffffff1673ffffffffffffffffffffffffffffffffffffffff1673ffffffffffffffffffffffffffffffffffffffff168152602001600182015f9054906101000a900473ffffffffffffffffffffffffffffffffffffffff1673ffffffffffffffffffffffffffffffffffffffff1673ffffffffffffffffffffffffffffffffffffffff16815260200160028201548152602001600382015f9054906101000a900460ff1660078111156107f2576107f1612b51565b5b600781111561080457610803612b51565b5b81526020016004820154815260200160058201805461082290613363565b80601f016020809104026020016040519081016040528092919081815260200182805461084e90613363565b80156108995780601f1061087057610100808354040283529160200191610899565b820191905f5260205f20905b81548152906001019060200180831161087c57829003601f168201915b505050505081526020016006820154815250509050919050565b6108bb6121ea565b8060055f8281526020019081526020015f206001015f9054906101000a900473ffffffffffffffffffffffffffffffffffffffff1673ffffffffffffffffffffffffffffffffffffffff163373ffffffffffffffffffffffffffffffffffffffff161461095d576040517f08c379a0000000000000000000000000000000000000000000000000000000008152600401610954906133dd565b60405180910390fd5b5f60055f8481526020019081526020015f2090505f6004600781111561098657610985612b51565b5b826003015f9054906101000a900460ff1660078111156109a9576109a8612b51565b5b1490505f600360078111156109c1576109c0612b51565b5b836003015f9054906101000a900460ff1660078111156109e4576109e3612b51565b5b148015610a02575060075483600601546109fe9190613428565b4210155b90508180610a0d5750805b610a4c576040517f08c379a0000000000000000000000000000000000000000000000000000000008152600401610a43906134cb565b60405180910390fd5b6005836003015f6101000a81548160ff02191690836007811115610a7357610a72612b51565b5b02179055507f000000000000000000000000000000000000000000000000000000000000000073ffffffffffffffffffffffffffffffffffffffff1663a9059cbb846001015f9054906101000a900473ffffffffffffffffffffffffffffffffffffffff1685600201546040518363ffffffff1660e01b8152600401610afa9291906134e9565b6020604051808303815f875af1158015610b16573d5f5f3e3d5ffd5b505050506040513d601f19601f82011682018060405250810190610b3a9190613524565b610b79576040517f08c379a0000000000000000000000000000000000000000000000000000000008152600401610b7090613599565b60405180910390fd5b847f9d400445a947fa264319211f6a70d775bd4a2877b85d7a770b6524b1274b78f160405160405180910390a250505050610bb261222e565b50565b610bbd612163565b610bc56121ea565b5f60055f8481526020019081526020015f209050600780811115610bec57610beb612b51565b5b816003015f9054906101000a900460ff166007811115610c0f57610c0e612b51565b5b14610c4f576040517f08c379a0000000000000000000000000000000000000000000000000000000008152600401610c4690613601565b60405180910390fd5b8115610dd6575f7f000000000000000000000000000000000000000000000000000000000000000073ffffffffffffffffffffffffffffffffffffffff1663a9059cbb835f015f9054906101000a900473ffffffffffffffffffffffffffffffffffffffff1684600201546040518363ffffffff1660e01b8152600401610cd79291906134e9565b6020604051808303815f875af1158015610cf3573d5f5f3e3d5ffd5b505050506040513d601f19601f82011682018060405250810190610d179190613524565b905080610d59576040517f08c379a0000000000000000000000000000000000000000000000000000000008152600401610d5090613669565b60405180910390fd5b6006826003015f6101000a81548160ff02191690836007811115610d8057610d7f612b51565b5b0217905550610d8d611a75565b73ffffffffffffffffffffffffffffffffffffffff16847f5ae0ecd682344c6aaebb54d6a93dae65cff74864b6ddce7a5a18c115fb467b7560405160405180910390a350610f36565b5f7f000000000000000000000000000000000000000000000000000000000000000073ffffffffffffffffffffffffffffffffffffffff1663a9059cbb836001015f9054906101000a900473ffffffffffffffffffffffffffffffffffffffff1684600201546040518363ffffffff1660e01b8152600401610e599291906134e9565b6020604051808303815f875af1158015610e75573d5f5f3e3d5ffd5b505050506040513d601f19601f82011682018060405250810190610e999190613524565b905080610edb576040517f08c379a0000000000000000000000000000000000000000000000000000000008152600401610ed2906136f7565b60405180910390fd5b6004826003015f6101000a81548160ff02191690836007811115610f0257610f01612b51565b5b0217905550837f60f91a26281f20fb528663f4da55773c83e2ee8a7a5dddb6d1753749e81dc49b60405160405180910390a2505b610f3e611a75565b73ffffffffffffffffffffffffffffffffffffffff16837f8fdd4548a8481406b6e29c0d6f25e27cd72502f79f4adf409468502e7920dabc84604051610f849190613724565b60405180910390a350610f9561222e565b5050565b5f5f73ffffffffffffffffffffffffffffffffffffffff168473ffffffffffffffffffffffffffffffffffffffff1603611008576040517f08c379a0000000000000000000000000000000000000000000000000000000008152600401610fff906137ad565b60405180910390fd5b5f831161104a576040517f08c379a00000000000000000000000000000000000000000000000000000000081526004016110419061383b565b60405180910390fd5b60045f81548092919061105c90613859565b919050555060045490506040518060e001604052803373ffffffffffffffffffffffffffffffffffffffff1681526020018573ffffffffffffffffffffffffffffffffffffffff1681526020018481526020015f60078111156110c2576110c1612b51565b5b815260200183815260200160405180602001604052805f81525081526020015f81525060055f8381526020019081526020015f205f820151815f015f6101000a81548173ffffffffffffffffffffffffffffffffffffffff021916908373ffffffffffffffffffffffffffffffffffffffff1602179055506020820151816001015f6101000a81548173ffffffffffffffffffffffffffffffffffffffff021916908373ffffffffffffffffffffffffffffffffffffffff160217905550604082015181600201556060820151816003015f6101000a81548160ff021916908360078111156111b4576111b3612b51565b5b02179055506080820151816004015560a08201518160050190816111d89190613a64565b5060c082015181600601559050508373ffffffffffffffffffffffffffffffffffffffff163373ffffffffffffffffffffffffffffffffffffffff16827f62ccf60fca5977a8357fa6f34ce9cd151965b86cfdf72293772ace9368dd06e98686604051611246929190613b33565b60405180910390a49392505050565b7f000000000000000000000000000000000000000000000000000000000000000081565b5f7f000000000000000000000000000000000000000000000000000000000000000090508073ffffffffffffffffffffffffffffffffffffffff163373ffffffffffffffffffffffffffffffffffffffff161461130f5733816040517f1cf993f4000000000000000000000000000000000000000000000000000000008152600401611306929190613b5a565b60405180910390fd5b6113198383612238565b505050565b60035481565b60075481565b60045481565b6113386121ea565b8060055f8281526020019081526020015f206001015f9054906101000a900473ffffffffffffffffffffffffffffffffffffffff1673ffffffffffffffffffffffffffffffffffffffff163373ffffffffffffffffffffffffffffffffffffffff16146113da576040517f08c379a00000000000000000000000000000000000000000000000000000000081526004016113d1906133dd565b60405180910390fd5b5f60055f8481526020019081526020015f2090506001600781111561140257611401612b51565b5b816003015f9054906101000a900460ff16600781111561142557611424612b51565b5b14611465576040517f08c379a000000000000000000000000000000000000000000000000000000000815260040161145c90613bf1565b60405180910390fd5b6006816003015f6101000a81548160ff0219169083600781111561148c5761148b612b51565b5b02179055505f816002015490507f000000000000000000000000000000000000000000000000000000000000000073ffffffffffffffffffffffffffffffffffffffff1663a9059cbb835f015f9054906101000a900473ffffffffffffffffffffffffffffffffffffffff16836040518363ffffffff1660e01b81526004016115169291906134e9565b6020604051808303815f875af1158015611532573d5f5f3e3d5ffd5b505050506040513d601f19601f820116820180604052508101906115569190613524565b611595576040517f08c379a000000000000000000000000000000000000000000000000000000000815260040161158c90613599565b60405180910390fd5b3373ffffffffffffffffffffffffffffffffffffffff16847f5ae0ecd682344c6aaebb54d6a93dae65cff74864b6ddce7a5a18c115fb467b7560405160405180910390a35050506115e461222e565b50565b6115ef612163565b6115f85f61231c565b565b6006602052805f5260405f205f915090505481565b5f8560055f8281526020019081526020015f206001015f9054906101000a900473ffffffffffffffffffffffffffffffffffffffff1673ffffffffffffffffffffffffffffffffffffffff163373ffffffffffffffffffffffffffffffffffffffff16146116b2576040517f08c379a00000000000000000000000000000000000000000000000000000000081526004016116a9906133dd565b60405180910390fd5b5f60055f8981526020019081526020015f209050600160078111156116da576116d9612b51565b5b816003015f9054906101000a900460ff1660078111156116fd576116fc612b51565b5b1461173d576040517f08c379a000000000000000000000000000000000000000000000000000000000815260040161173490613c7f565b60405180910390fd5b5f8787905011611782576040517f08c379a000000000000000000000000000000000000000000000000000000000815260040161177990613d0d565b60405180910390fd5b5f5f1b600354036117c8576040517f08c379a00000000000000000000000000000000000000000000000000000000081526004016117bf90613d75565b60405180910390fd5b86868260050191826117db929190613d9d565b505f6117e86003546123df565b905061184c6040518060400160405280600381526020017f676574000000000000000000000000000000000000000000000000000000000081525060405180606001604052806037815260200161455760379139836124419092919063ffffffff16565b6118cb6040518060400160405280600481526020017f70617468000000000000000000000000000000000000000000000000000000008152506040518060400160405280600f81526020017f646174612c72617465732c555344540000000000000000000000000000000000815250836124419092919063ffffffff16565b61194a6040518060400160405280600581526020017f706f7731300000000000000000000000000000000000000000000000000000008152506040518060400160405280600181526020017f3800000000000000000000000000000000000000000000000000000000000000815250836124419092919063ffffffff16565b7f000000000000000000000000000000000000000000000000000000000000000073ffffffffffffffffffffffffffffffffffffffff1663752f8c1482878960016040518563ffffffff1660e01b81526004016119aa9493929190614006565b6020604051808303815f875af11580156119c6573d5f5f3e3d5ffd5b505050506040513d601f19601f820116820180604052508101906119ea9190614064565b93508860065f8681526020019081526020015f20819055506002826003015f6101000a81548160ff02191690836007811115611a2957611a28612b51565b5b021790555083897fed35b0807a3aa581b7d0240a96a11f989f6c7bc6472b3c82181dac90054fde2a8a8a604051611a619291906140c9565b60405180910390a350505095945050505050565b5f60015f9054906101000a900473ffffffffffffffffffffffffffffffffffffffff16905090565b8060055f8281526020019081526020015f205f015f9054906101000a900473ffffffffffffffffffffffffffffffffffffffff1673ffffffffffffffffffffffffffffffffffffffff163373ffffffffffffffffffffffffffffffffffffffff1614611b3e576040517f08c379a0000000000000000000000000000000000000000000000000000000008152600401611b359061328a565b60405180910390fd5b5f60055f8481526020019081526020015f20905060036007811115611b6657611b65612b51565b5b816003015f9054906101000a900460ff166007811115611b8957611b88612b51565b5b14611bc9576040517f08c379a0000000000000000000000000000000000000000000000000000000008152600401611bc09061415b565b60405180910390fd5b6007548160060154611bdb9190613428565b4210611c1c576040517f08c379a0000000000000000000000000000000000000000000000000000000008152600401611c13906141c3565b60405180910390fd5b6007816003015f6101000a81548160ff02191690836007811115611c4357611c42612b51565b5b0217905550827f995328816eb12e50ec2691560298922cd9ead6191e59874ef2ef6ca8c766d72560405160405180910390a2505050565b611c82612163565b806007819055507fa07016194ad6cf69ce63d15e6172d7d8bff3221f58442571a1f4b14b202ee6f981604051611cb89190612f3f565b60405180910390a150565b8060055f8281526020019081526020015f205f015f9054906101000a900473ffffffffffffffffffffffffffffffffffffffff1673ffffffffffffffffffffffffffffffffffffffff163373ffffffffffffffffffffffffffffffffffffffff1614611d64576040517f08c379a0000000000000000000000000000000000000000000000000000000008152600401611d5b9061328a565b60405180910390fd5b5f60055f8481526020019081526020015f2090505f6007811115611d8b57611d8a612b51565b5b816003015f9054906101000a900460ff166007811115611dae57611dad612b51565b5b14611dee576040517f08c379a0000000000000000000000000000000000000000000000000000000008152600401611de59061422b565b60405180910390fd5b5f816002015490507f000000000000000000000000000000000000000000000000000000000000000073ffffffffffffffffffffffffffffffffffffffff166323b872dd3330846040518463ffffffff1660e01b8152600401611e5393929190614249565b6020604051808303815f875af1158015611e6f573d5f5f3e3d5ffd5b505050506040513d601f19601f82011682018060405250810190611e939190613524565b611ed2576040517f08c379a0000000000000000000000000000000000000000000000000000000008152600401611ec990613599565b60405180910390fd5b6001826003015f6101000a81548160ff02191690836007811115611ef957611ef8612b51565b5b0217905550837f32ac6dd600238cd1df1ada8454f3052e492968d78726df42310be01c83426b9160405160405180910390a250505050565b7f000000000000000000000000000000000000000000000000000000000000000081565b611f5d612163565b5f73ffffffffffffffffffffffffffffffffffffffff168173ffffffffffffffffffffffffffffffffffffffff1603611fcd575f6040517f1e4fbdf7000000000000000000000000000000000000000000000000000000008152600401611fc491906131c3565b60405180910390fd5b611fd68161231c565b50565b8060055f8281526020019081526020015f205f015f9054906101000a900473ffffffffffffffffffffffffffffffffffffffff1673ffffffffffffffffffffffffffffffffffffffff163373ffffffffffffffffffffffffffffffffffffffff161461207a576040517f08c379a00000000000000000000000000000000000000000000000000000000081526004016120719061328a565b60405180910390fd5b5f60055f8481526020019081526020015f209050600360078111156120a2576120a1612b51565b5b816003015f9054906101000a900460ff1660078111156120c5576120c4612b51565b5b14612105576040517f08c379a00000000000000000000000000000000000000000000000000000000081526004016120fc906142ee565b60405180910390fd5b6004816003015f6101000a81548160ff0219169083600781111561212c5761212b612b51565b5b0217905550827f60f91a26281f20fb528663f4da55773c83e2ee8a7a5dddb6d1753749e81dc49b60405160405180910390a2505050565b61216b612474565b73ffffffffffffffffffffffffffffffffffffffff16612189611a75565b73ffffffffffffffffffffffffffffffffffffffff16146121e8576121ac612474565b6040517f118cdaa70000000000000000000000000000000000000000000000000000000081526004016121df91906131c3565b60405180910390fd5b565b6002805403612225576040517f3ee5aeb500000000000000000000000000000000000000000000000000000000815260040160405180910390fd5b60028081905550565b6001600281905550565b5f60065f8481526020019081526020015f205490505f810361225a5750612318565b6003826fffffffffffffffffffffffffffffffff161061231657600360055f8381526020019081526020015f206003015f6101000a81548160ff021916908360078111156122ab576122aa612b51565b5b02179055504260055f8381526020019081526020015f2060060181905550807ffd5c48b60a567819336e24e93033bbbc2ef3da1d5ca1ae3306aaeb9dbb4b8018426040516122f99190612f3f565b60405180910390a260065f8481526020019081526020015f205f90555b505b5050565b5f60015f9054906101000a900473ffffffffffffffffffffffffffffffffffffffff1690508160015f6101000a81548173ffffffffffffffffffffffffffffffffffffffff021916908373ffffffffffffffffffffffffffffffffffffffff1602179055508173ffffffffffffffffffffffffffffffffffffffff168173ffffffffffffffffffffffffffffffffffffffff167f8be0079c531659141344cd1fd0a4f28419497f9722a3daafe3b4186f6b6457e060405160405180910390a35050565b6123e7612a1e565b61243a827f00000000000000000000000000000000000000000000000000000000000000005f5f8681526020019081526020015f205f9054906101000a900460e01b8461247b909392919063ffffffff16565b9050919050565b61245882846080015161252a90919063ffffffff16565b61246f81846080015161252a90919063ffffffff16565b505050565b5f33905090565b612483612a1e565b612493856080015161010061254f565b5083855f01818152505082856020019073ffffffffffffffffffffffffffffffffffffffff16908173ffffffffffffffffffffffffffffffffffffffff16815250508185604001907bffffffffffffffffffffffffffffffffffffffffffffffffffffffff191690817bffffffffffffffffffffffffffffffffffffffffffffffffffffffff191681525050849050949350505050565b61253782600383516125b7565b61254a818361273c90919063ffffffff16565b505050565b612557612a84565b5f6020836125659190614339565b14612591576020826125779190614339565b60206125839190614369565b8261258e9190613428565b91505b818360200181815250506040518084525f81528281016020016040525082905092915050565b60178167ffffffffffffffff16116125ee576125e88160058460ff16901b60ff16178461275d90919063ffffffff16565b50612737565b60ff8167ffffffffffffffff16116126445761261d601860058460ff16901b178461275d90919063ffffffff16565b5061263e8167ffffffffffffffff1660018561277c9092919063ffffffff16565b50612736565b61ffff8167ffffffffffffffff161161269b57612674601960058460ff16901b178461275d90919063ffffffff16565b506126958167ffffffffffffffff1660028561277c9092919063ffffffff16565b50612735565b63ffffffff8167ffffffffffffffff16116126f4576126cd601a60058460ff16901b178461275d90919063ffffffff16565b506126ee8167ffffffffffffffff1660048561277c9092919063ffffffff16565b50612734565b612711601b60058460ff16901b178461275d90919063ffffffff16565b506127328167ffffffffffffffff1660088561277c9092919063ffffffff16565b505b5b5b5b505050565b612744612a84565b61275583845f01515184855161279d565b905092915050565b612765612a84565b61277483845f01515184612889565b905092915050565b612784612a84565b61279484855f01515185856128df565b90509392505050565b6127a5612a84565b82518211156127b2575f5ffd5b846020015182856127c39190613428565b11156127f8576127f78560026127e8886020015188876127e39190613428565b61296c565b6127f2919061439c565b612987565b5b5f5f8651805187602083010193508088870111156128165787860182525b60208701925050505b6020841061285d57805182526020826128389190613428565b91506020816128479190613428565b90506020846128569190614369565b935061281f565b5f6001856020036101000a03905080198251168184511681811785525050508692505050949350505050565b612891612a84565b836020015183106128b7576128b684600286602001516128b1919061439c565b612987565b5b835180516020858301018481538186036128d2576001820183525b5050508390509392505050565b6128e7612a84565b846020015184836128f89190613428565b11156129205761291f85600286856129109190613428565b61291a919061439c565b612987565b5b5f600183610100612931919061450c565b61293b9190614369565b9050855183868201018583198251161781528151858801111561295e5784870182525b505085915050949350505050565b5f8183111561297d57829050612981565b8190505b92915050565b5f825f01519050612998838361254f565b506129a3838261273c565b50505050565b6040518060e001604052805f73ffffffffffffffffffffffffffffffffffffffff1681526020015f73ffffffffffffffffffffffffffffffffffffffff1681526020015f81526020015f6007811115612a0557612a04612b51565b5b81526020015f8152602001606081526020015f81525090565b6040518060a001604052805f81526020015f73ffffffffffffffffffffffffffffffffffffffff1681526020015f7bffffffffffffffffffffffffffffffffffffffffffffffffffffffff191681526020015f8152602001612a7e612a84565b81525090565b6040518060400160405280606081526020015f81525090565b5f5ffd5b5f5ffd5b5f819050919050565b612ab781612aa5565b8114612ac1575f5ffd5b50565b5f81359050612ad281612aae565b92915050565b5f60208284031215612aed57612aec612a9d565b5b5f612afa84828501612ac4565b91505092915050565b5f73ffffffffffffffffffffffffffffffffffffffff82169050919050565b5f612b2c82612b03565b9050919050565b612b3c81612b22565b82525050565b612b4b81612aa5565b82525050565b7f4e487b71000000000000000000000000000000000000000000000000000000005f52602160045260245ffd5b60088110612b8f57612b8e612b51565b5b50565b5f819050612b9f82612b7e565b919050565b5f612bae82612b92565b9050919050565b612bbe81612ba4565b82525050565b5f819050919050565b612bd681612bc4565b82525050565b5f81519050919050565b5f82825260208201905092915050565b8281835e5f83830152505050565b5f601f19601f8301169050919050565b5f612c1e82612bdc565b612c288185612be6565b9350612c38818560208601612bf6565b612c4181612c04565b840191505092915050565b5f60e082019050612c5f5f83018a612b33565b612c6c6020830189612b33565b612c796040830188612b42565b612c866060830187612bb5565b612c936080830186612bcd565b81810360a0830152612ca58185612c14565b9050612cb460c0830184612b42565b98975050505050505050565b612cc981612bc4565b8114612cd3575f5ffd5b50565b5f81359050612ce481612cc0565b92915050565b5f60208284031215612cff57612cfe612a9d565b5b5f612d0c84828501612cd6565b91505092915050565b612d1e81612b22565b82525050565b612d2d81612aa5565b82525050565b612d3c81612ba4565b82525050565b612d4b81612bc4565b82525050565b5f82825260208201905092915050565b5f612d6b82612bdc565b612d758185612d51565b9350612d85818560208601612bf6565b612d8e81612c04565b840191505092915050565b5f60e083015f830151612dae5f860182612d15565b506020830151612dc16020860182612d15565b506040830151612dd46040860182612d24565b506060830151612de76060860182612d33565b506080830151612dfa6080860182612d42565b5060a083015184820360a0860152612e128282612d61565b91505060c0830151612e2760c0860182612d24565b508091505092915050565b5f6020820190508181035f830152612e4a8184612d99565b905092915050565b5f8115159050919050565b612e6681612e52565b8114612e70575f5ffd5b50565b5f81359050612e8181612e5d565b92915050565b5f5f60408385031215612e9d57612e9c612a9d565b5b5f612eaa85828601612ac4565b9250506020612ebb85828601612e73565b9150509250929050565b612ece81612b22565b8114612ed8575f5ffd5b50565b5f81359050612ee981612ec5565b92915050565b5f5f5f60608486031215612f0657612f05612a9d565b5b5f612f1386828701612edb565b9350506020612f2486828701612ac4565b9250506040612f3586828701612cd6565b9150509250925092565b5f602082019050612f525f830184612b42565b92915050565b5f819050919050565b5f612f7b612f76612f7184612b03565b612f58565b612b03565b9050919050565b5f612f8c82612f61565b9050919050565b5f612f9d82612f82565b9050919050565b612fad81612f93565b82525050565b5f602082019050612fc65f830184612fa4565b92915050565b5f6fffffffffffffffffffffffffffffffff82169050919050565b612ff081612fcc565b8114612ffa575f5ffd5b50565b5f8135905061300b81612fe7565b92915050565b5f5f6040838503121561302757613026612a9d565b5b5f61303485828601612ac4565b925050602061304585828601612ffd565b9150509250929050565b5f6020820190506130625f830184612bcd565b92915050565b5f5ffd5b5f5ffd5b5f5ffd5b5f5f83601f84011261308957613088613068565b5b8235905067ffffffffffffffff8111156130a6576130a561306c565b5b6020830191508360018202830111156130c2576130c1613070565b5b9250929050565b5f67ffffffffffffffff82169050919050565b6130e5816130c9565b81146130ef575f5ffd5b50565b5f81359050613100816130dc565b92915050565b5f63ffffffff82169050919050565b61311e81613106565b8114613128575f5ffd5b50565b5f8135905061313981613115565b92915050565b5f5f5f5f5f6080868803121561315857613157612a9d565b5b5f61316588828901612ac4565b955050602086013567ffffffffffffffff81111561318657613185612aa1565b5b61319288828901613074565b945094505060406131a5888289016130f2565b92505060606131b68882890161312b565b9150509295509295909350565b5f6020820190506131d65f830184612b33565b92915050565b5f6131e682612f82565b9050919050565b6131f6816131dc565b82525050565b5f60208201905061320f5f8301846131ed565b92915050565b5f6020828403121561322a57613229612a9d565b5b5f61323784828501612edb565b91505092915050565b7f4454453a2043616c6c6572206973206e6f7420746865206275796572000000005f82015250565b5f613274601c83612be6565b915061327f82613240565b602082019050919050565b5f6020820190508181035f8301526132a181613268565b9050919050565b7f4454453a2043616e206f6e6c792063616e63656c206120747261646520696e205f8201527f4372656174656420737461746500000000000000000000000000000000000000602082015250565b5f613302602d83612be6565b915061330d826132a8565b604082019050919050565b5f6020820190508181035f83015261332f816132f6565b9050919050565b7f4e487b71000000000000000000000000000000000000000000000000000000005f52602260045260245ffd5b5f600282049050600182168061337a57607f821691505b60208210810361338d5761338c613336565b5b50919050565b7f4454453a2043616c6c6572206973206e6f74207468652073656c6c65720000005f82015250565b5f6133c7601d83612be6565b91506133d282613393565b602082019050919050565b5f6020820190508181035f8301526133f4816133bb565b9050919050565b7f4e487b71000000000000000000000000000000000000000000000000000000005f52601160045260245ffd5b5f61343282612aa5565b915061343d83612aa5565b9250828201905080821115613455576134546133fb565b5b92915050565b7f4454453a205769746864726177616c20636f6e646974696f6e73206e6f74206d5f8201527f6574000000000000000000000000000000000000000000000000000000000000602082015250565b5f6134b5602283612be6565b91506134c08261345b565b604082019050919050565b5f6020820190508181035f8301526134e2816134a9565b9050919050565b5f6040820190506134fc5f830185612b33565b6135096020830184612b42565b9392505050565b5f8151905061351e81612e5d565b92915050565b5f6020828403121561353957613538612a9d565b5b5f61354684828501613510565b91505092915050565b7f4454453a20546f6b656e207472616e73666572206661696c65640000000000005f82015250565b5f613583601a83612be6565b915061358e8261354f565b602082019050919050565b5f6020820190508181035f8301526135b081613577565b9050919050565b7f4454453a205472616465206e6f7420696e2044697370757465642073746174655f82015250565b5f6135eb602083612be6565b91506135f6826135b7565b602082019050919050565b5f6020820190508181035f830152613618816135df565b9050919050565b7f4454453a204661696c656420746f20726566756e6420746f20627579657200005f82015250565b5f613653601e83612be6565b915061365e8261361f565b602082019050919050565b5f6020820190508181035f83015261368081613647565b9050919050565b7f4454453a204661696c656420746f207472616e7366657220746f2073656c6c655f8201527f7200000000000000000000000000000000000000000000000000000000000000602082015250565b5f6136e1602183612be6565b91506136ec82613687565b604082019050919050565b5f6020820190508181035f83015261370e816136d5565b9050919050565b61371e81612e52565b82525050565b5f6020820190506137375f830184613715565b92915050565b7f4454453a2053656c6c657220616464726573732063616e6e6f74206265207a655f8201527f726f000000000000000000000000000000000000000000000000000000000000602082015250565b5f613797602283612be6565b91506137a28261373d565b604082019050919050565b5f6020820190508181035f8301526137c48161378b565b9050919050565b7f4454453a20416d6f756e74206d7573742062652067726561746572207468616e5f8201527f207a65726f000000000000000000000000000000000000000000000000000000602082015250565b5f613825602583612be6565b9150613830826137cb565b604082019050919050565b5f6020820190508181035f83015261385281613819565b9050919050565b5f61386382612aa5565b91507fffffffffffffffffffffffffffffffffffffffffffffffffffffffffffffffff8203613895576138946133fb565b5b600182019050919050565b7f4e487b71000000000000000000000000000000000000000000000000000000005f52604160045260245ffd5b5f819050815f5260205f209050919050565b5f6020601f8301049050919050565b5f82821b905092915050565b5f600883026139297fffffffffffffffffffffffffffffffffffffffffffffffffffffffffffffffff826138ee565b61393386836138ee565b95508019841693508086168417925050509392505050565b5f61396561396061395b84612aa5565b612f58565b612aa5565b9050919050565b5f819050919050565b61397e8361394b565b61399261398a8261396c565b8484546138fa565b825550505050565b5f5f905090565b6139a961399a565b6139b4818484613975565b505050565b5b818110156139d7576139cc5f826139a1565b6001810190506139ba565b5050565b601f821115613a1c576139ed816138cd565b6139f6846138df565b81016020851015613a05578190505b613a19613a11856138df565b8301826139b9565b50505b505050565b5f82821c905092915050565b5f613a3c5f1984600802613a21565b1980831691505092915050565b5f613a548383613a2d565b9150826002028217905092915050565b613a6d82612bdc565b67ffffffffffffffff811115613a8657613a856138a0565b5b613a908254613363565b613a9b8282856139db565b5f60209050601f831160018114613acc575f8415613aba578287015190505b613ac48582613a49565b865550613b2b565b601f198416613ada866138cd565b5f5b82811015613b0157848901518255600182019150602085019450602081019050613adc565b86831015613b1e5784890151613b1a601f891682613a2d565b8355505b6001600288020188555050505b505050505050565b5f604082019050613b465f830185612b42565b613b536020830184612bcd565b9392505050565b5f604082019050613b6d5f830185612b33565b613b7a6020830184612b33565b9392505050565b7f4454453a2043616e206f6e6c792063616e63656c206120747261646520696e205f8201527f4465706f73697465642073746174650000000000000000000000000000000000602082015250565b5f613bdb602f83612be6565b9150613be682613b81565b604082019050919050565b5f6020820190508181035f830152613c0881613bcf565b9050919050565b7f4454453a205472616465206e6f7420696e204465706f736974656420737461745f8201527f6500000000000000000000000000000000000000000000000000000000000000602082015250565b5f613c69602183612be6565b9150613c7482613c0f565b604082019050919050565b5f6020820190508181035f830152613c9681613c5d565b9050919050565b7f4454453a20547261636b696e67206e756d6265722063616e6e6f7420626520655f8201527f6d70747900000000000000000000000000000000000000000000000000000000602082015250565b5f613cf7602483612be6565b9150613d0282613c9d565b604082019050919050565b5f6020820190508181035f830152613d2481613ceb565b9050919050565b7f4454453a204a6f62204944206e6f7420736574000000000000000000000000005f82015250565b5f613d5f601383612be6565b9150613d6a82613d2b565b602082019050919050565b5f6020820190508181035f830152613d8c81613d53565b9050919050565b5f82905092915050565b613da78383613d93565b67ffffffffffffffff811115613dc057613dbf6138a0565b5b613dca8254613363565b613dd58282856139db565b5f601f831160018114613e02575f8415613df0578287013590505b613dfa8582613a49565b865550613e61565b601f198416613e10866138cd565b5f5b82811015613e3757848901358255600182019150602085019450602081019050613e12565b86831015613e545784890135613e50601f891682613a2d565b8355505b6001600288020188555050505b50505050505050565b5f7fffffffff0000000000000000000000000000000000000000000000000000000082169050919050565b613e9e81613e6a565b82525050565b5f81519050919050565b5f82825260208201905092915050565b5f613ec882613ea4565b613ed28185613eae565b9350613ee2818560208601612bf6565b613eeb81612c04565b840191505092915050565b5f604083015f8301518482035f860152613f108282613ebe565b9150506020830151613f256020860182612d24565b508091505092915050565b5f60a083015f830151613f455f860182612d42565b506020830151613f586020860182612d15565b506040830151613f6b6040860182613e95565b506060830151613f7e6060860182612d24565b5060808301518482036080860152613f968282613ef6565b9150508091505092915050565b613fac81613106565b82525050565b613fbb816130c9565b82525050565b5f819050919050565b5f60ff82169050919050565b5f613ff0613feb613fe684613fc1565b612f58565b613fca565b9050919050565b61400081613fd6565b82525050565b5f6080820190508181035f83015261401e8187613f30565b905061402d6020830186613fa3565b61403a6040830185613fb2565b6140476060830184613ff7565b95945050505050565b5f8151905061405e81612aae565b92915050565b5f6020828403121561407957614078612a9d565b5b5f61408684828501614050565b91505092915050565b828183375f83830152505050565b5f6140a88385612be6565b93506140b583858461408f565b6140be83612c04565b840190509392505050565b5f6020820190508181035f8301526140e281848661409d565b90509392505050565b7f4454453a2043616e206f6e6c79206469737075746520696e2044656c697665725f8201527f6564207374617465000000000000000000000000000000000000000000000000602082015250565b5f614145602883612be6565b9150614150826140eb565b604082019050919050565b5f6020820190508181035f83015261417281614139565b9050919050565b7f4454453a204469737075746520706572696f64206973206f76657200000000005f82015250565b5f6141ad601b83612be6565b91506141b882614179565b602082019050919050565b5f6020820190508181035f8301526141da816141a1565b9050919050565b7f4454453a205472616465206e6f7420696e2043726561746564207374617465005f82015250565b5f614215601f83612be6565b9150614220826141e1565b602082019050919050565b5f6020820190508181035f83015261424281614209565b9050919050565b5f60608201905061425c5f830186612b33565b6142696020830185612b33565b6142766040830184612b42565b949350505050565b7f4454453a205472616465206e6f7420696e2044656c69766572656420737461745f8201527f6500000000000000000000000000000000000000000000000000000000000000602082015250565b5f6142d8602183612be6565b91506142e38261427e565b604082019050919050565b5f6020820190508181035f830152614305816142cc565b9050919050565b7f4e487b71000000000000000000000000000000000000000000000000000000005f52601260045260245ffd5b5f61434382612aa5565b915061434e83612aa5565b92508261435e5761435d61430c565b5b828206905092915050565b5f61437382612aa5565b915061437e83612aa5565b9250828203905081811115614396576143956133fb565b5b92915050565b5f6143a682612aa5565b91506143b183612aa5565b92508282026143bf81612aa5565b915082820484148315176143d6576143d56133fb565b5b5092915050565b5f8160011c9050919050565b5f5f8291508390505b60018511156144325780860481111561440e5761440d6133fb565b5b600185161561441d5780820291505b808102905061442b856143dd565b94506143f2565b94509492505050565b5f8261444a5760019050614505565b81614457575f9050614505565b816001811461446d5760028114614477576144a6565b6001915050614505565b60ff841115614489576144886133fb565b5b8360020a9150848211156144a05761449f6133fb565b5b50614505565b5060208310610133831016604e8410600b84101617156144db5782820a9050838111156144d6576144d56133fb565b5b614505565b6144e884848460016143e9565b925090508184048111156144ff576144fe6133fb565b5b81810290505b9392505050565b5f61451682612aa5565b915061452183612aa5565b925061454e7fffffffffffffffffffffffffffffffffffffffffffffffffffffffffffffffff848461443b565b90509291505056fe68747470733a2f2f6170692e636f696e626173652e636f6d2f76322f65786368616e67652d72617465733f63757272656e63793d425443a2646970667358221220cbe8d5ec1e4f28e56c00f6f64480f8c7910c4e9c847166f40be4a97f03e40a6864736f6c634300081e0033","linkReferences":{}},"methodIdentifiers":{"COORDINATOR()":"3b2bcbf1","STABLE_KRW_ADDRESS()":"eb0fc59c","cancelBySellerAfterDeposit(uint256)":"6984781b","cancelTradeByBuyer(uint256)":"0aa38213","confirmDelivery(uint256)":"fd84cb97","createTrade(address,uint256,bytes32)":"383605f3","deliveryTrackingJobId()":"566ae9a1","deposit(uint256)":"b6b55f25","disputePeriod()":"5bf31d4d","getTrade(uint256)":"2db25e05","owner()":"8da5cb5b","raiseDispute(uint256)":"a5c1674e","rawFulfillDataRequest(uint256,uint128)":"45b9b6fb","renounceOwnership()":"715018a6","requestToTradeId(uint256)":"81ec8fed","resolveDispute(uint256,bool)":"34b25ee2","setDeliveryTrackingJobId(bytes32)":"2552b4ba","setDisputePeriod(uint256)":"a83ba53e","submitTrackingInfo(uint256,string,uint64,uint32)":"8ba19317","tradeCounter()":"660d15b5","trades(uint256)":"1e6c598e","transferOwnership(address)":"f2fde38b","withdraw(uint256)":"2e1a7d4d"},"id":34}