{"abi":[{"type":"constructor","inputs":[{"name":"_stableKRWAddress","type":"address","internalType":"address"},{"name":"_coordinator","type":"address","internalType":"address"},{"name":"_initialOwner","type":"address","internalType":"address"},{"name":"_trackingApiKey","type":"string","internalType":"string"}],"stateMutability":"nonpayable"},{"type":"function","name":"COORDINATOR","inputs":[],"outputs":[{"name":"","type":"address","internalType":"contract IRequestResponseCoordinator"}],"stateMutability":"view"},{"type":"function","name":"STABLE_KRW_ADDRESS","inputs":[],"outputs":[{"name":"","type":"address","internalType":"contract IERC20"}],"stateMutability":"view"},{"type":"function","name":"cancelBySellerAfterDeposit","inputs":[{"name":"_tradeId","type":"uint256","internalType":"uint256"}],"outputs":[],"stateMutability":"nonpayable"},{"type":"function","name":"cancelTradeByBuyer","inputs":[{"name":"_tradeId","type":"uint256","internalType":"uint256"}],"outputs":[],"stateMutability":"nonpayable"},{"type":"function","name":"confirmDelivery","inputs":[{"name":"_tradeId","type":"uint256","internalType":"uint256"}],"outputs":[],"stateMutability":"nonpayable"},{"type":"function","name":"createTrade","inputs":[{"name":"_seller","type":"address","internalType":"address"},{"name":"_amount","type":"uint256","internalType":"uint256"},{"name":"_deliveryAddressHash","type":"bytes32","internalType":"bytes32"}],"outputs":[{"name":"tradeId","type":"uint256","internalType":"uint256"}],"stateMutability":"nonpayable"},{"type":"function","name":"deliveryTrackingJobId","inputs":[],"outputs":[{"name":"","type":"bytes32","internalType":"bytes32"}],"stateMutability":"view"},{"type":"function","name":"deposit","inputs":[{"name":"_tradeId","type":"uint256","internalType":"uint256"}],"outputs":[],"stateMutability":"nonpayable"},{"type":"function","name":"disputePeriod","inputs":[],"outputs":[{"name":"","type":"uint256","internalType":"uint256"}],"stateMutability":"view"},{"type":"function","name":"getTrade","inputs":[{"name":"_tradeId","type":"uint256","internalType":"uint256"}],"outputs":[{"name":"","type":"tuple","internalType":"struct DecentralizedTradeEscrow.Trade","components":[{"name":"buyer","type":"address","internalType":"address"},{"name":"seller","type":"address","internalType":"address"},{"name":"amount","type":"uint256","internalType":"uint256"},{"name":"status","type":"uint8","internalType":"enum DecentralizedTradeEscrow.TradeStatus"},{"name":"deliveryAddressHash","type":"bytes32","internalType":"bytes32"},{"name":"trackingNumber","type":"string","internalType":"string"},{"name":"deliveredAt","type":"uint256","internalType":"uint256"}]}],"stateMutability":"view"},{"type":"function","name":"owner","inputs":[],"outputs":[{"name":"","type":"address","internalType":"address"}],"stateMutability":"view"},{"type":"function","name":"raiseDispute","inputs":[{"name":"_tradeId","type":"uint256","internalType":"uint256"}],"outputs":[],"stateMutability":"nonpayable"},{"type":"function","name":"rawFulfillDataRequest","inputs":[{"name":"requestId","type":"uint256","internalType":"uint256"},{"name":"response","type":"uint128","internalType":"uint128"}],"outputs":[],"stateMutability":"nonpayable"},{"type":"function","name":"renounceOwnership","inputs":[],"outputs":[],"stateMutability":"nonpayable"},{"type":"function","name":"requestToTradeId","inputs":[{"name":"","type":"uint256","internalType":"uint256"}],"outputs":[{"name":"","type":"uint256","internalType":"uint256"}],"stateMutability":"view"},{"type":"function","name":"resolveDispute","inputs":[{"name":"_tradeId","type":"uint256","internalType":"uint256"},{"name":"_refundToBuyer","type":"bool","internalType":"bool"}],"outputs":[],"stateMutability":"nonpayable"},{"type":"function","name":"setDeliveryTrackingJobId","inputs":[{"name":"_jobId","type":"bytes32","internalType":"bytes32"}],"outputs":[],"stateMutability":"nonpayable"},{"type":"function","name":"setDisputePeriod","inputs":[{"name":"_newPeriod","type":"uint256","internalType":"uint256"}],"outputs":[],"stateMutability":"nonpayable"},{"type":"function","name":"setTrackingApiKey","inputs":[{"name":"_newKey","type":"string","internalType":"string"}],"outputs":[],"stateMutability":"nonpayable"},{"type":"function","name":"submitTrackingInfo","inputs":[{"name":"_tradeId","type":"uint256","internalType":"uint256"},{"name":"_trackingNumber","type":"string","internalType":"string"},{"name":"_accId","type":"uint64","internalType":"uint64"},{"name":"_callbackGasLimit","type":"uint32","internalType":"uint32"}],"outputs":[{"name":"requestId","type":"uint256","internalType":"uint256"}],"stateMutability":"nonpayable"},{"type":"function","name":"tradeCounter","inputs":[],"outputs":[{"name":"","type":"uint256","internalType":"uint256"}],"stateMutability":"view"},{"type":"function","name":"trades","inputs":[{"name":"","type":"uint256","internalType":"uint256"}],"outputs":[{"name":"buyer","type":"address","internalType":"address"},{"name":"seller","type":"address","internalType":"address"},{"name":"amount","type":"uint256","internalType":"uint256"},{"name":"status","type":"uint8","internalType":"enum DecentralizedTradeEscrow.TradeStatus"},{"name":"deliveryAddressHash","type":"bytes32","internalType":"bytes32"},{"name":"trackingNumber","type":"string","internalType":"string"},{"name":"deliveredAt","type":"uint256","internalType":"uint256"}],"stateMutability":"view"},{"type":"function","name":"transferOwnership","inputs":[{"name":"newOwner","type":"address","internalType":"address"}],"outputs":[],"stateMutability":"nonpayable"},{"type":"function","name":"withdraw","inputs":[{"name":"_tradeId","type":"uint256","internalType":"uint256"}],"outputs":[],"stateMutability":"nonpayable"},{"type":"event","name":"DisputePeriodUpdated","inputs":[{"name":"newPeriod","type":"uint256","indexed":false,"internalType":"uint256"}],"anonymous":false},{"type":"event","name":"DisputeResolved","inputs":[{"name":"tradeId","type":"uint256","indexed":true,"internalType":"uint256"},{"name":"resolver","type":"address","indexed":true,"internalType":"address"},{"name":"refundedToBuyer","type":"bool","indexed":false,"internalType":"bool"}],"anonymous":false},{"type":"event","name":"OwnershipTransferred","inputs":[{"name":"previousOwner","type":"address","indexed":true,"internalType":"address"},{"name":"newOwner","type":"address","indexed":true,"internalType":"address"}],"anonymous":false},{"type":"event","name":"TrackingApiKeyUpdated","inputs":[],"anonymous":false},{"type":"event","name":"TrackingInfoSubmitted","inputs":[{"name":"tradeId","type":"uint256","indexed":true,"internalType":"uint256"},{"name":"requestId","type":"uint256","indexed":true,"internalType":"uint256"},{"name":"trackingNumber","type":"string","indexed":false,"internalType":"string"}],"anonymous":false},{"type":"event","name":"TradeCanceled","inputs":[{"name":"tradeId","type":"uint256","indexed":true,"internalType":"uint256"},{"name":"canceledBy","type":"address","indexed":true,"internalType":"address"}],"anonymous":false},{"type":"event","name":"TradeCompleted","inputs":[{"name":"tradeId","type":"uint256","indexed":true,"internalType":"uint256"}],"anonymous":false},{"type":"event","name":"TradeCreated","inputs":[{"name":"tradeId","type":"uint256","indexed":true,"internalType":"uint256"},{"name":"buyer","type":"address","indexed":true,"internalType":"address"},{"name":"seller","type":"address","indexed":true,"internalType":"address"},{"name":"amount","type":"uint256","indexed":false,"internalType":"uint256"},{"name":"deliveryAddressHash","type":"bytes32","indexed":false,"internalType":"bytes32"}],"anonymous":false},{"type":"event","name":"TradeDelivered","inputs":[{"name":"tradeId","type":"uint256","indexed":true,"internalType":"uint256"},{"name":"timestamp","type":"uint256","indexed":false,"internalType":"uint256"}],"anonymous":false},{"type":"event","name":"TradeDeposited","inputs":[{"name":"tradeId","type":"uint256","indexed":true,"internalType":"uint256"}],"anonymous":false},{"type":"event","name":"TradeDisputed","inputs":[{"name":"tradeId","type":"uint256","indexed":true,"internalType":"uint256"}],"anonymous":false},{"type":"event","name":"TradeWithdrawn","inputs":[{"name":"tradeId","type":"uint256","indexed":true,"internalType":"uint256"}],"anonymous":false},{"type":"error","name":"OnlyCoordinatorCanFulfill","inputs":[{"name":"have","type":"address","internalType":"address"},{"name":"want","type":"address","internalType":"address"}]},{"type":"error","name":"OwnableInvalidOwner","inputs":[{"name":"owner","type":"address","internalType":"address"}]},{"type":"error","name":"OwnableUnauthorizedAccount","inputs":[{"name":"account","type":"address","internalType":"address"}]},{"type":"error","name":"ReentrancyGuardReentrantCall","inputs":[]}],"bytecode":{"object":"0x60c060405234801561000f575f5ffd5b506040516155323803806155328339818101604052810190610031919061063b565b81838073ffffffffffffffffffffffffffffffffffffffff1660808173ffffffffffffffffffffffffffffffffffffffff16815250506080515063a185c35f60e01b5f5f6040516020016100849061070f565b6040516020818303038152906040528051906020012081526020019081526020015f205f6101000a81548163ffffffff021916908360e01c02179055506080515063d1bf555c60e01b5f5f6040516020016100de9061076d565b6040516020818303038152906040528051906020012081526020019081526020015f205f6101000a81548163ffffffff021916908360e01c021790555060805150637961841760e01b5f5f604051602001610138906107cb565b6040516020818303038152906040528051906020012081526020019081526020015f205f6101000a81548163ffffffff021916908360e01c02179055506080515063f30be55160e01b5f5f60405160200161019290610829565b6040516020818303038152906040528051906020012081526020019081526020015f205f6101000a81548163ffffffff021916908360e01c02179055506080515063bf8542a960e01b5f5f6040516020016101ec90610887565b6040516020818303038152906040528051906020012081526020019081526020015f205f6101000a81548163ffffffff021916908360e01c02179055506080515063c6f3401360e01b5f5f604051602001610246906108e5565b6040516020818303038152906040528051906020012081526020019081526020015f205f6101000a81548163ffffffff021916908360e01c0217905550505f73ffffffffffffffffffffffffffffffffffffffff168173ffffffffffffffffffffffffffffffffffffffff16036102f4575f6040517f1e4fbdf70000000000000000000000000000000000000000000000000000000081526004016102eb9190610908565b60405180910390fd5b610303816103d160201b60201c565b5060016002819055505f73ffffffffffffffffffffffffffffffffffffffff168473ffffffffffffffffffffffffffffffffffffffff160361037a576040517f08c379a0000000000000000000000000000000000000000000000000000000008152600401610371906109a1565b60405180910390fd5b8373ffffffffffffffffffffffffffffffffffffffff1660a08173ffffffffffffffffffffffffffffffffffffffff168152505080600890816103bd9190610bcf565b5062093a8060078190555050505050610c9e565b5f60015f9054906101000a900473ffffffffffffffffffffffffffffffffffffffff1690508160015f6101000a81548173ffffffffffffffffffffffffffffffffffffffff021916908373ffffffffffffffffffffffffffffffffffffffff1602179055508173ffffffffffffffffffffffffffffffffffffffff168173ffffffffffffffffffffffffffffffffffffffff167f8be0079c531659141344cd1fd0a4f28419497f9722a3daafe3b4186f6b6457e060405160405180910390a35050565b5f604051905090565b5f5ffd5b5f5ffd5b5f73ffffffffffffffffffffffffffffffffffffffff82169050919050565b5f6104ce826104a5565b9050919050565b6104de816104c4565b81146104e8575f5ffd5b50565b5f815190506104f9816104d5565b92915050565b5f5ffd5b5f5ffd5b5f601f19601f8301169050919050565b7f4e487b71000000000000000000000000000000000000000000000000000000005f52604160045260245ffd5b61054d82610507565b810181811067ffffffffffffffff8211171561056c5761056b610517565b5b80604052505050565b5f61057e610494565b905061058a8282610544565b919050565b5f67ffffffffffffffff8211156105a9576105a8610517565b5b6105b282610507565b9050602081019050919050565b8281835e5f83830152505050565b5f6105df6105da8461058f565b610575565b9050828152602081018484840111156105fb576105fa610503565b5b6106068482856105bf565b509392505050565b5f82601f830112610622576106216104ff565b5b81516106328482602086016105cd565b91505092915050565b5f5f5f5f608085870312156106535761065261049d565b5b5f610660878288016104eb565b9450506020610671878288016104eb565b9350506040610682878288016104eb565b925050606085015167ffffffffffffffff8111156106a3576106a26104a1565b5b6106af8782880161060e565b91505092959194509250565b5f81905092915050565b7f75696e74313238000000000000000000000000000000000000000000000000005f82015250565b5f6106f96007836106bb565b9150610704826106c5565b600782019050919050565b5f610719826106ed565b9150819050919050565b7f696e7432353600000000000000000000000000000000000000000000000000005f82015250565b5f6107576006836106bb565b915061076282610723565b600682019050919050565b5f6107778261074b565b9150819050919050565b7f626f6f6c000000000000000000000000000000000000000000000000000000005f82015250565b5f6107b56004836106bb565b91506107c082610781565b600482019050919050565b5f6107d5826107a9565b9150819050919050565b7f737472696e6700000000000000000000000000000000000000000000000000005f82015250565b5f6108136006836106bb565b915061081e826107df565b600682019050919050565b5f61083382610807565b9150819050919050565b7f62797465733332000000000000000000000000000000000000000000000000005f82015250565b5f6108716007836106bb565b915061087c8261083d565b600782019050919050565b5f61089182610865565b9150819050919050565b7f62797465730000000000000000000000000000000000000000000000000000005f82015250565b5f6108cf6005836106bb565b91506108da8261089b565b600582019050919050565b5f6108ef826108c3565b9150819050919050565b610902816104c4565b82525050565b5f60208201905061091b5f8301846108f9565b92915050565b5f82825260208201905092915050565b7f4454453a20537461626c654b525720616464726573732063616e6e6f742062655f8201527f207a65726f000000000000000000000000000000000000000000000000000000602082015250565b5f61098b602583610921565b915061099682610931565b604082019050919050565b5f6020820190508181035f8301526109b88161097f565b9050919050565b5f81519050919050565b7f4e487b71000000000000000000000000000000000000000000000000000000005f52602260045260245ffd5b5f6002820490506001821680610a0d57607f821691505b602082108103610a2057610a1f6109c9565b5b50919050565b5f819050815f5260205f209050919050565b5f6020601f8301049050919050565b5f82821b905092915050565b5f60088302610a827fffffffffffffffffffffffffffffffffffffffffffffffffffffffffffffffff82610a47565b610a8c8683610a47565b95508019841693508086168417925050509392505050565b5f819050919050565b5f819050919050565b5f610ad0610acb610ac684610aa4565b610aad565b610aa4565b9050919050565b5f819050919050565b610ae983610ab6565b610afd610af582610ad7565b848454610a53565b825550505050565b5f5f905090565b610b14610b05565b610b1f818484610ae0565b505050565b5b81811015610b4257610b375f82610b0c565b600181019050610b25565b5050565b601f821115610b8757610b5881610a26565b610b6184610a38565b81016020851015610b70578190505b610b84610b7c85610a38565b830182610b24565b50505b505050565b5f82821c905092915050565b5f610ba75f1984600802610b8c565b1980831691505092915050565b5f610bbf8383610b98565b9150826002028217905092915050565b610bd8826109bf565b67ffffffffffffffff811115610bf157610bf0610517565b5b610bfb82546109f6565b610c06828285610b46565b5f60209050601f831160018114610c37575f8415610c25578287015190505b610c2f8582610bb4565b865550610c96565b601f198416610c4586610a26565b5f5b82811015610c6c57848901518255600182019150602085019450602081019050610c47565b86831015610c895784890151610c85601f891682610b98565b8355505b6001600288020188555050505b505050505050565b60805160a05161483b610cf75f395f8181610aa101528181610c7f01528181610e00015281816114c201528181611e010152611f8601525f818161127e015281816112a3015281816119540152612440015261483b5ff3fe608060405234801561000f575f5ffd5b5060043610610156575f3560e01c80636984781b116100c1578063a83ba53e1161007a578063a83ba53e146103b4578063b6b55f25146103d0578063e5a68cb6146103ec578063eb0fc59c14610408578063f2fde38b14610426578063fd84cb971461044257610156565b80636984781b146102f4578063715018a61461031057806381ec8fed1461031a5780638ba193171461034a5780638da5cb5b1461037a578063a5c1674e1461039857610156565b8063383605f311610113578063383605f3146102305780633b2bcbf11461026057806345b9b6fb1461027e578063566ae9a11461029a5780635bf31d4d146102b8578063660d15b5146102d657610156565b80630aa382131461015a5780631e6c598e146101765780632552b4ba146101ac5780632db25e05146101c85780632e1a7d4d146101f857806334b25ee214610214575b5f5ffd5b610174600480360381019061016f9190612b2b565b61045e565b005b610190600480360381019061018b9190612b2b565b6105fe565b6040516101a39796959493929190612c9f565b60405180910390f35b6101c660048036038101906101c19190612d3d565b61070c565b005b6101e260048036038101906101dd9190612b2b565b61071e565b6040516101ef9190612e85565b60405180910390f35b610212600480360381019061020d9190612b2b565b6108da565b005b61022e60048036038101906102299190612eda565b610bdc565b005b61024a60048036038101906102459190612f42565b610fc0565b6040516102579190612f92565b60405180910390f35b61026861127c565b6040516102759190613006565b60405180910390f35b61029860048036038101906102939190613064565b6112a0565b005b6102a2611345565b6040516102af91906130a2565b60405180910390f35b6102c061134b565b6040516102cd9190612f92565b60405180910390f35b6102de611351565b6040516102eb9190612f92565b60405180910390f35b61030e60048036038101906103099190612b2b565b611357565b005b61031861160e565b005b610334600480360381019061032f9190612b2b565b611621565b6040516103419190612f92565b60405180910390f35b610364600480360381019061035f9190613192565b611636565b6040516103719190612f92565b60405180910390f35b610382611a7e565b60405161038f9190613216565b60405180910390f35b6103b260048036038101906103ad9190612b2b565b611aa6565b005b6103ce60048036038101906103c99190612b2b565b611c83565b005b6103ea60048036038101906103e59190612b2b565b611ccc565b005b6104066004803603810190610401919061322f565b611f3a565b005b610410611f84565b60405161041d919061329a565b60405180910390f35b610440600480360381019061043b91906132b3565b611fa8565b005b61045c60048036038101906104579190612b2b565b61202c565b005b8060055f8281526020019081526020015f205f015f9054906101000a900473ffffffffffffffffffffffffffffffffffffffff1673ffffffffffffffffffffffffffffffffffffffff163373ffffffffffffffffffffffffffffffffffffffff16146104ff576040517f08c379a00000000000000000000000000000000000000000000000000000000081526004016104f690613328565b60405180910390fd5b5f60055f8481526020019081526020015f2090505f600781111561052657610525612ba4565b5b816003015f9054906101000a900460ff16600781111561054957610548612ba4565b5b14610589576040517f08c379a0000000000000000000000000000000000000000000000000000000008152600401610580906133b6565b60405180910390fd5b6006816003015f6101000a81548160ff021916908360078111156105b0576105af612ba4565b5b02179055503373ffffffffffffffffffffffffffffffffffffffff16837f5ae0ecd682344c6aaebb54d6a93dae65cff74864b6ddce7a5a18c115fb467b7560405160405180910390a3505050565b6005602052805f5260405f205f91509050805f015f9054906101000a900473ffffffffffffffffffffffffffffffffffffffff1690806001015f9054906101000a900473ffffffffffffffffffffffffffffffffffffffff1690806002015490806003015f9054906101000a900460ff169080600401549080600501805461068590613401565b80601f01602080910402602001604051908101604052809291908181526020018280546106b190613401565b80156106fc5780601f106106d3576101008083540402835291602001916106fc565b820191905f5260205f20905b8154815290600101906020018083116106df57829003601f168201915b5050505050908060060154905087565b6107146121b6565b8060038190555050565b6107266129fc565b60055f8381526020019081526020015f206040518060e00160405290815f82015f9054906101000a900473ffffffffffffffffffffffffffffffffffffffff1673ffffffffffffffffffffffffffffffffffffffff1673ffffffffffffffffffffffffffffffffffffffff168152602001600182015f9054906101000a900473ffffffffffffffffffffffffffffffffffffffff1673ffffffffffffffffffffffffffffffffffffffff1673ffffffffffffffffffffffffffffffffffffffff16815260200160028201548152602001600382015f9054906101000a900460ff16600781111561081957610818612ba4565b5b600781111561082b5761082a612ba4565b5b81526020016004820154815260200160058201805461084990613401565b80601f016020809104026020016040519081016040528092919081815260200182805461087590613401565b80156108c05780601f10610897576101008083540402835291602001916108c0565b820191905f5260205f20905b8154815290600101906020018083116108a357829003601f168201915b505050505081526020016006820154815250509050919050565b6108e261223d565b8060055f8281526020019081526020015f206001015f9054906101000a900473ffffffffffffffffffffffffffffffffffffffff1673ffffffffffffffffffffffffffffffffffffffff163373ffffffffffffffffffffffffffffffffffffffff1614610984576040517f08c379a000000000000000000000000000000000000000000000000000000000815260040161097b9061347b565b60405180910390fd5b5f60055f8481526020019081526020015f2090505f600460078111156109ad576109ac612ba4565b5b826003015f9054906101000a900460ff1660078111156109d0576109cf612ba4565b5b1490505f600360078111156109e8576109e7612ba4565b5b836003015f9054906101000a900460ff166007811115610a0b57610a0a612ba4565b5b148015610a2957506007548360060154610a2591906134c6565b4210155b90508180610a345750805b610a73576040517f08c379a0000000000000000000000000000000000000000000000000000000008152600401610a6a90613569565b60405180910390fd5b6005836003015f6101000a81548160ff02191690836007811115610a9a57610a99612ba4565b5b02179055507f000000000000000000000000000000000000000000000000000000000000000073ffffffffffffffffffffffffffffffffffffffff1663a9059cbb846001015f9054906101000a900473ffffffffffffffffffffffffffffffffffffffff1685600201546040518363ffffffff1660e01b8152600401610b21929190613587565b6020604051808303815f875af1158015610b3d573d5f5f3e3d5ffd5b505050506040513d601f19601f82011682018060405250810190610b6191906135c2565b610ba0576040517f08c379a0000000000000000000000000000000000000000000000000000000008152600401610b9790613637565b60405180910390fd5b847f9d400445a947fa264319211f6a70d775bd4a2877b85d7a770b6524b1274b78f160405160405180910390a250505050610bd9612281565b50565b610be46121b6565b610bec61223d565b5f60055f8481526020019081526020015f209050600780811115610c1357610c12612ba4565b5b816003015f9054906101000a900460ff166007811115610c3657610c35612ba4565b5b14610c76576040517f08c379a0000000000000000000000000000000000000000000000000000000008152600401610c6d9061369f565b60405180910390fd5b8115610dfd575f7f000000000000000000000000000000000000000000000000000000000000000073ffffffffffffffffffffffffffffffffffffffff1663a9059cbb835f015f9054906101000a900473ffffffffffffffffffffffffffffffffffffffff1684600201546040518363ffffffff1660e01b8152600401610cfe929190613587565b6020604051808303815f875af1158015610d1a573d5f5f3e3d5ffd5b505050506040513d601f19601f82011682018060405250810190610d3e91906135c2565b905080610d80576040517f08c379a0000000000000000000000000000000000000000000000000000000008152600401610d7790613707565b60405180910390fd5b6006826003015f6101000a81548160ff02191690836007811115610da757610da6612ba4565b5b0217905550610db4611a7e565b73ffffffffffffffffffffffffffffffffffffffff16847f5ae0ecd682344c6aaebb54d6a93dae65cff74864b6ddce7a5a18c115fb467b7560405160405180910390a350610f5d565b5f7f000000000000000000000000000000000000000000000000000000000000000073ffffffffffffffffffffffffffffffffffffffff1663a9059cbb836001015f9054906101000a900473ffffffffffffffffffffffffffffffffffffffff1684600201546040518363ffffffff1660e01b8152600401610e80929190613587565b6020604051808303815f875af1158015610e9c573d5f5f3e3d5ffd5b505050506040513d601f19601f82011682018060405250810190610ec091906135c2565b905080610f02576040517f08c379a0000000000000000000000000000000000000000000000000000000008152600401610ef990613795565b60405180910390fd5b6004826003015f6101000a81548160ff02191690836007811115610f2957610f28612ba4565b5b0217905550837f60f91a26281f20fb528663f4da55773c83e2ee8a7a5dddb6d1753749e81dc49b60405160405180910390a2505b610f65611a7e565b73ffffffffffffffffffffffffffffffffffffffff16837f8fdd4548a8481406b6e29c0d6f25e27cd72502f79f4adf409468502e7920dabc84604051610fab91906137c2565b60405180910390a350610fbc612281565b5050565b5f5f73ffffffffffffffffffffffffffffffffffffffff168473ffffffffffffffffffffffffffffffffffffffff160361102f576040517f08c379a00000000000000000000000000000000000000000000000000000000081526004016110269061384b565b60405180910390fd5b5f8311611071576040517f08c379a0000000000000000000000000000000000000000000000000000000008152600401611068906138d9565b60405180910390fd5b60045f815480929190611083906138f7565b919050555060045490506040518060e001604052803373ffffffffffffffffffffffffffffffffffffffff1681526020018573ffffffffffffffffffffffffffffffffffffffff1681526020018481526020015f60078111156110e9576110e8612ba4565b5b815260200183815260200160405180602001604052805f81525081526020015f81525060055f8381526020019081526020015f205f820151815f015f6101000a81548173ffffffffffffffffffffffffffffffffffffffff021916908373ffffffffffffffffffffffffffffffffffffffff1602179055506020820151816001015f6101000a81548173ffffffffffffffffffffffffffffffffffffffff021916908373ffffffffffffffffffffffffffffffffffffffff160217905550604082015181600201556060820151816003015f6101000a81548160ff021916908360078111156111db576111da612ba4565b5b02179055506080820151816004015560a08201518160050190816111ff9190613b02565b5060c082015181600601559050508373ffffffffffffffffffffffffffffffffffffffff163373ffffffffffffffffffffffffffffffffffffffff16827f62ccf60fca5977a8357fa6f34ce9cd151965b86cfdf72293772ace9368dd06e9868660405161126d929190613bd1565b60405180910390a49392505050565b7f000000000000000000000000000000000000000000000000000000000000000081565b5f7f000000000000000000000000000000000000000000000000000000000000000090508073ffffffffffffffffffffffffffffffffffffffff163373ffffffffffffffffffffffffffffffffffffffff16146113365733816040517f1cf993f400000000000000000000000000000000000000000000000000000000815260040161132d929190613bf8565b60405180910390fd5b611340838361228b565b505050565b60035481565b60075481565b60045481565b61135f61223d565b8060055f8281526020019081526020015f206001015f9054906101000a900473ffffffffffffffffffffffffffffffffffffffff1673ffffffffffffffffffffffffffffffffffffffff163373ffffffffffffffffffffffffffffffffffffffff1614611401576040517f08c379a00000000000000000000000000000000000000000000000000000000081526004016113f89061347b565b60405180910390fd5b5f60055f8481526020019081526020015f2090506001600781111561142957611428612ba4565b5b816003015f9054906101000a900460ff16600781111561144c5761144b612ba4565b5b1461148c576040517f08c379a000000000000000000000000000000000000000000000000000000000815260040161148390613c8f565b60405180910390fd5b6006816003015f6101000a81548160ff021916908360078111156114b3576114b2612ba4565b5b02179055505f816002015490507f000000000000000000000000000000000000000000000000000000000000000073ffffffffffffffffffffffffffffffffffffffff1663a9059cbb835f015f9054906101000a900473ffffffffffffffffffffffffffffffffffffffff16836040518363ffffffff1660e01b815260040161153d929190613587565b6020604051808303815f875af1158015611559573d5f5f3e3d5ffd5b505050506040513d601f19601f8201168201806040525081019061157d91906135c2565b6115bc576040517f08c379a00000000000000000000000000000000000000000000000000000000081526004016115b390613637565b60405180910390fd5b3373ffffffffffffffffffffffffffffffffffffffff16847f5ae0ecd682344c6aaebb54d6a93dae65cff74864b6ddce7a5a18c115fb467b7560405160405180910390a350505061160b612281565b50565b6116166121b6565b61161f5f61236f565b565b6006602052805f5260405f205f915090505481565b5f8560055f8281526020019081526020015f206001015f9054906101000a900473ffffffffffffffffffffffffffffffffffffffff1673ffffffffffffffffffffffffffffffffffffffff163373ffffffffffffffffffffffffffffffffffffffff16146116d9576040517f08c379a00000000000000000000000000000000000000000000000000000000081526004016116d09061347b565b60405180910390fd5b5f60055f8981526020019081526020015f2090506001600781111561170157611700612ba4565b5b816003015f9054906101000a900460ff16600781111561172457611723612ba4565b5b14611764576040517f08c379a000000000000000000000000000000000000000000000000000000000815260040161175b90613d1d565b60405180910390fd5b5f87879050116117a9576040517f08c379a00000000000000000000000000000000000000000000000000000000081526004016117a090613dab565b60405180910390fd5b5f5f1b600354036117ef576040517f08c379a00000000000000000000000000000000000000000000000000000000081526004016117e690613e13565b60405180910390fd5b5f600880546117fd90613401565b90501161183f576040517f08c379a000000000000000000000000000000000000000000000000000000000815260040161183690613e7b565b60405180910390fd5b8686826005019182611852929190613ea3565b505f8787600860405160200161186a939291906140e8565b60405160208183030381529060405290505f611887600354612432565b90506118d36040518060400160405280600381526020017f676574000000000000000000000000000000000000000000000000000000000081525083836124949092919063ffffffff16565b6119526040518060400160405280600481526020017f70617468000000000000000000000000000000000000000000000000000000008152506040518060400160405280600581526020017f6c6576656c000000000000000000000000000000000000000000000000000000815250836124949092919063ffffffff16565b7f000000000000000000000000000000000000000000000000000000000000000073ffffffffffffffffffffffffffffffffffffffff1663752f8c1482888a60016040518563ffffffff1660e01b81526004016119b294939291906142c3565b6020604051808303815f875af11580156119ce573d5f5f3e3d5ffd5b505050506040513d601f19601f820116820180604052508101906119f29190614321565b94508960065f8781526020019081526020015f20819055506002836003015f6101000a81548160ff02191690836007811115611a3157611a30612ba4565b5b0217905550848a7fed35b0807a3aa581b7d0240a96a11f989f6c7bc6472b3c82181dac90054fde2a8b8b604051611a69929190614378565b60405180910390a35050505095945050505050565b5f60015f9054906101000a900473ffffffffffffffffffffffffffffffffffffffff16905090565b8060055f8281526020019081526020015f205f015f9054906101000a900473ffffffffffffffffffffffffffffffffffffffff1673ffffffffffffffffffffffffffffffffffffffff163373ffffffffffffffffffffffffffffffffffffffff1614611b47576040517f08c379a0000000000000000000000000000000000000000000000000000000008152600401611b3e90613328565b60405180910390fd5b5f60055f8481526020019081526020015f20905060036007811115611b6f57611b6e612ba4565b5b816003015f9054906101000a900460ff166007811115611b9257611b91612ba4565b5b14611bd2576040517f08c379a0000000000000000000000000000000000000000000000000000000008152600401611bc99061440a565b60405180910390fd5b6007548160060154611be491906134c6565b4210611c25576040517f08c379a0000000000000000000000000000000000000000000000000000000008152600401611c1c90614472565b60405180910390fd5b6007816003015f6101000a81548160ff02191690836007811115611c4c57611c4b612ba4565b5b0217905550827f995328816eb12e50ec2691560298922cd9ead6191e59874ef2ef6ca8c766d72560405160405180910390a2505050565b611c8b6121b6565b806007819055507fa07016194ad6cf69ce63d15e6172d7d8bff3221f58442571a1f4b14b202ee6f981604051611cc19190612f92565b60405180910390a150565b8060055f8281526020019081526020015f205f015f9054906101000a900473ffffffffffffffffffffffffffffffffffffffff1673ffffffffffffffffffffffffffffffffffffffff163373ffffffffffffffffffffffffffffffffffffffff1614611d6d576040517f08c379a0000000000000000000000000000000000000000000000000000000008152600401611d6490613328565b60405180910390fd5b5f60055f8481526020019081526020015f2090505f6007811115611d9457611d93612ba4565b5b816003015f9054906101000a900460ff166007811115611db757611db6612ba4565b5b14611df7576040517f08c379a0000000000000000000000000000000000000000000000000000000008152600401611dee906144da565b60405180910390fd5b5f816002015490507f000000000000000000000000000000000000000000000000000000000000000073ffffffffffffffffffffffffffffffffffffffff166323b872dd3330846040518463ffffffff1660e01b8152600401611e5c939291906144f8565b6020604051808303815f875af1158015611e78573d5f5f3e3d5ffd5b505050506040513d601f19601f82011682018060405250810190611e9c91906135c2565b611edb576040517f08c379a0000000000000000000000000000000000000000000000000000000008152600401611ed290613637565b60405180910390fd5b6001826003015f6101000a81548160ff02191690836007811115611f0257611f01612ba4565b5b0217905550837f32ac6dd600238cd1df1ada8454f3052e492968d78726df42310be01c83426b9160405160405180910390a250505050565b611f426121b6565b818160089182611f53929190613ea3565b507f2b46648261ad50455442d8fae6be4dfe25024584eb0ff8ce6b143629054786f660405160405180910390a15050565b7f000000000000000000000000000000000000000000000000000000000000000081565b611fb06121b6565b5f73ffffffffffffffffffffffffffffffffffffffff168173ffffffffffffffffffffffffffffffffffffffff1603612020575f6040517f1e4fbdf70000000000000000000000000000000000000000000000000000000081526004016120179190613216565b60405180910390fd5b6120298161236f565b50565b8060055f8281526020019081526020015f205f015f9054906101000a900473ffffffffffffffffffffffffffffffffffffffff1673ffffffffffffffffffffffffffffffffffffffff163373ffffffffffffffffffffffffffffffffffffffff16146120cd576040517f08c379a00000000000000000000000000000000000000000000000000000000081526004016120c490613328565b60405180910390fd5b5f60055f8481526020019081526020015f209050600360078111156120f5576120f4612ba4565b5b816003015f9054906101000a900460ff16600781111561211857612117612ba4565b5b14612158576040517f08c379a000000000000000000000000000000000000000000000000000000000815260040161214f9061459d565b60405180910390fd5b6004816003015f6101000a81548160ff0219169083600781111561217f5761217e612ba4565b5b0217905550827f60f91a26281f20fb528663f4da55773c83e2ee8a7a5dddb6d1753749e81dc49b60405160405180910390a2505050565b6121be6124c7565b73ffffffffffffffffffffffffffffffffffffffff166121dc611a7e565b73ffffffffffffffffffffffffffffffffffffffff161461223b576121ff6124c7565b6040517f118cdaa70000000000000000000000000000000000000000000000000000000081526004016122329190613216565b60405180910390fd5b565b6002805403612278576040517f3ee5aeb500000000000000000000000000000000000000000000000000000000815260040160405180910390fd5b60028081905550565b6001600281905550565b5f60065f8481526020019081526020015f205490505f81036122ad575061236b565b6003826fffffffffffffffffffffffffffffffff161061236957600360055f8381526020019081526020015f206003015f6101000a81548160ff021916908360078111156122fe576122fd612ba4565b5b02179055504260055f8381526020019081526020015f2060060181905550807ffd5c48b60a567819336e24e93033bbbc2ef3da1d5ca1ae3306aaeb9dbb4b80184260405161234c9190612f92565b60405180910390a260065f8481526020019081526020015f205f90555b505b5050565b5f60015f9054906101000a900473ffffffffffffffffffffffffffffffffffffffff1690508160015f6101000a81548173ffffffffffffffffffffffffffffffffffffffff021916908373ffffffffffffffffffffffffffffffffffffffff1602179055508173ffffffffffffffffffffffffffffffffffffffff168173ffffffffffffffffffffffffffffffffffffffff167f8be0079c531659141344cd1fd0a4f28419497f9722a3daafe3b4186f6b6457e060405160405180910390a35050565b61243a612a71565b61248d827f00000000000000000000000000000000000000000000000000000000000000005f5f8681526020019081526020015f205f9054906101000a900460e01b846124ce909392919063ffffffff16565b9050919050565b6124ab82846080015161257d90919063ffffffff16565b6124c281846080015161257d90919063ffffffff16565b505050565b5f33905090565b6124d6612a71565b6124e685608001516101006125a2565b5083855f01818152505082856020019073ffffffffffffffffffffffffffffffffffffffff16908173ffffffffffffffffffffffffffffffffffffffff16815250508185604001907bffffffffffffffffffffffffffffffffffffffffffffffffffffffff191690817bffffffffffffffffffffffffffffffffffffffffffffffffffffffff191681525050849050949350505050565b61258a826003835161260a565b61259d818361278f90919063ffffffff16565b505050565b6125aa612ad7565b5f6020836125b891906145e8565b146125e4576020826125ca91906145e8565b60206125d69190614618565b826125e191906134c6565b91505b818360200181815250506040518084525f81528281016020016040525082905092915050565b60178167ffffffffffffffff16116126415761263b8160058460ff16901b60ff1617846127b090919063ffffffff16565b5061278a565b60ff8167ffffffffffffffff161161269757612670601860058460ff16901b17846127b090919063ffffffff16565b506126918167ffffffffffffffff166001856127cf9092919063ffffffff16565b50612789565b61ffff8167ffffffffffffffff16116126ee576126c7601960058460ff16901b17846127b090919063ffffffff16565b506126e88167ffffffffffffffff166002856127cf9092919063ffffffff16565b50612788565b63ffffffff8167ffffffffffffffff161161274757612720601a60058460ff16901b17846127b090919063ffffffff16565b506127418167ffffffffffffffff166004856127cf9092919063ffffffff16565b50612787565b612764601b60058460ff16901b17846127b090919063ffffffff16565b506127858167ffffffffffffffff166008856127cf9092919063ffffffff16565b505b5b5b5b505050565b612797612ad7565b6127a883845f0151518485516127f0565b905092915050565b6127b8612ad7565b6127c783845f015151846128dc565b905092915050565b6127d7612ad7565b6127e784855f0151518585612932565b90509392505050565b6127f8612ad7565b8251821115612805575f5ffd5b8460200151828561281691906134c6565b111561284b5761284a85600261283b8860200151888761283691906134c6565b6129bf565b612845919061464b565b6129da565b5b5f5f8651805187602083010193508088870111156128695787860182525b60208701925050505b602084106128b0578051825260208261288b91906134c6565b915060208161289a91906134c6565b90506020846128a99190614618565b9350612872565b5f6001856020036101000a03905080198251168184511681811785525050508692505050949350505050565b6128e4612ad7565b8360200151831061290a576129098460028660200151612904919061464b565b6129da565b5b83518051602085830101848153818603612925576001820183525b5050508390509392505050565b61293a612ad7565b8460200151848361294b91906134c6565b111561297357612972856002868561296391906134c6565b61296d919061464b565b6129da565b5b5f60018361010061298491906147bb565b61298e9190614618565b905085518386820101858319825116178152815185880111156129b15784870182525b505085915050949350505050565b5f818311156129d0578290506129d4565b8190505b92915050565b5f825f015190506129eb83836125a2565b506129f6838261278f565b50505050565b6040518060e001604052805f73ffffffffffffffffffffffffffffffffffffffff1681526020015f73ffffffffffffffffffffffffffffffffffffffff1681526020015f81526020015f6007811115612a5857612a57612ba4565b5b81526020015f8152602001606081526020015f81525090565b6040518060a001604052805f81526020015f73ffffffffffffffffffffffffffffffffffffffff1681526020015f7bffffffffffffffffffffffffffffffffffffffffffffffffffffffff191681526020015f8152602001612ad1612ad7565b81525090565b6040518060400160405280606081526020015f81525090565b5f5ffd5b5f5ffd5b5f819050919050565b612b0a81612af8565b8114612b14575f5ffd5b50565b5f81359050612b2581612b01565b92915050565b5f60208284031215612b4057612b3f612af0565b5b5f612b4d84828501612b17565b91505092915050565b5f73ffffffffffffffffffffffffffffffffffffffff82169050919050565b5f612b7f82612b56565b9050919050565b612b8f81612b75565b82525050565b612b9e81612af8565b82525050565b7f4e487b71000000000000000000000000000000000000000000000000000000005f52602160045260245ffd5b60088110612be257612be1612ba4565b5b50565b5f819050612bf282612bd1565b919050565b5f612c0182612be5565b9050919050565b612c1181612bf7565b82525050565b5f819050919050565b612c2981612c17565b82525050565b5f81519050919050565b5f82825260208201905092915050565b8281835e5f83830152505050565b5f601f19601f8301169050919050565b5f612c7182612c2f565b612c7b8185612c39565b9350612c8b818560208601612c49565b612c9481612c57565b840191505092915050565b5f60e082019050612cb25f83018a612b86565b612cbf6020830189612b86565b612ccc6040830188612b95565b612cd96060830187612c08565b612ce66080830186612c20565b81810360a0830152612cf88185612c67565b9050612d0760c0830184612b95565b98975050505050505050565b612d1c81612c17565b8114612d26575f5ffd5b50565b5f81359050612d3781612d13565b92915050565b5f60208284031215612d5257612d51612af0565b5b5f612d5f84828501612d29565b91505092915050565b612d7181612b75565b82525050565b612d8081612af8565b82525050565b612d8f81612bf7565b82525050565b612d9e81612c17565b82525050565b5f82825260208201905092915050565b5f612dbe82612c2f565b612dc88185612da4565b9350612dd8818560208601612c49565b612de181612c57565b840191505092915050565b5f60e083015f830151612e015f860182612d68565b506020830151612e146020860182612d68565b506040830151612e276040860182612d77565b506060830151612e3a6060860182612d86565b506080830151612e4d6080860182612d95565b5060a083015184820360a0860152612e658282612db4565b91505060c0830151612e7a60c0860182612d77565b508091505092915050565b5f6020820190508181035f830152612e9d8184612dec565b905092915050565b5f8115159050919050565b612eb981612ea5565b8114612ec3575f5ffd5b50565b5f81359050612ed481612eb0565b92915050565b5f5f60408385031215612ef057612eef612af0565b5b5f612efd85828601612b17565b9250506020612f0e85828601612ec6565b9150509250929050565b612f2181612b75565b8114612f2b575f5ffd5b50565b5f81359050612f3c81612f18565b92915050565b5f5f5f60608486031215612f5957612f58612af0565b5b5f612f6686828701612f2e565b9350506020612f7786828701612b17565b9250506040612f8886828701612d29565b9150509250925092565b5f602082019050612fa55f830184612b95565b92915050565b5f819050919050565b5f612fce612fc9612fc484612b56565b612fab565b612b56565b9050919050565b5f612fdf82612fb4565b9050919050565b5f612ff082612fd5565b9050919050565b61300081612fe6565b82525050565b5f6020820190506130195f830184612ff7565b92915050565b5f6fffffffffffffffffffffffffffffffff82169050919050565b6130438161301f565b811461304d575f5ffd5b50565b5f8135905061305e8161303a565b92915050565b5f5f6040838503121561307a57613079612af0565b5b5f61308785828601612b17565b925050602061309885828601613050565b9150509250929050565b5f6020820190506130b55f830184612c20565b92915050565b5f5ffd5b5f5ffd5b5f5ffd5b5f5f83601f8401126130dc576130db6130bb565b5b8235905067ffffffffffffffff8111156130f9576130f86130bf565b5b602083019150836001820283011115613115576131146130c3565b5b9250929050565b5f67ffffffffffffffff82169050919050565b6131388161311c565b8114613142575f5ffd5b50565b5f813590506131538161312f565b92915050565b5f63ffffffff82169050919050565b61317181613159565b811461317b575f5ffd5b50565b5f8135905061318c81613168565b92915050565b5f5f5f5f5f608086880312156131ab576131aa612af0565b5b5f6131b888828901612b17565b955050602086013567ffffffffffffffff8111156131d9576131d8612af4565b5b6131e5888289016130c7565b945094505060406131f888828901613145565b92505060606132098882890161317e565b9150509295509295909350565b5f6020820190506132295f830184612b86565b92915050565b5f5f6020838503121561324557613244612af0565b5b5f83013567ffffffffffffffff81111561326257613261612af4565b5b61326e858286016130c7565b92509250509250929050565b5f61328482612fd5565b9050919050565b6132948161327a565b82525050565b5f6020820190506132ad5f83018461328b565b92915050565b5f602082840312156132c8576132c7612af0565b5b5f6132d584828501612f2e565b91505092915050565b7f4454453a2043616c6c6572206973206e6f7420746865206275796572000000005f82015250565b5f613312601c83612c39565b915061331d826132de565b602082019050919050565b5f6020820190508181035f83015261333f81613306565b9050919050565b7f4454453a2043616e206f6e6c792063616e63656c206120747261646520696e205f8201527f4372656174656420737461746500000000000000000000000000000000000000602082015250565b5f6133a0602d83612c39565b91506133ab82613346565b604082019050919050565b5f6020820190508181035f8301526133cd81613394565b9050919050565b7f4e487b71000000000000000000000000000000000000000000000000000000005f52602260045260245ffd5b5f600282049050600182168061341857607f821691505b60208210810361342b5761342a6133d4565b5b50919050565b7f4454453a2043616c6c6572206973206e6f74207468652073656c6c65720000005f82015250565b5f613465601d83612c39565b915061347082613431565b602082019050919050565b5f6020820190508181035f83015261349281613459565b9050919050565b7f4e487b71000000000000000000000000000000000000000000000000000000005f52601160045260245ffd5b5f6134d082612af8565b91506134db83612af8565b92508282019050808211156134f3576134f2613499565b5b92915050565b7f4454453a205769746864726177616c20636f6e646974696f6e73206e6f74206d5f8201527f6574000000000000000000000000000000000000000000000000000000000000602082015250565b5f613553602283612c39565b915061355e826134f9565b604082019050919050565b5f6020820190508181035f83015261358081613547565b9050919050565b5f60408201905061359a5f830185612b86565b6135a76020830184612b95565b9392505050565b5f815190506135bc81612eb0565b92915050565b5f602082840312156135d7576135d6612af0565b5b5f6135e4848285016135ae565b91505092915050565b7f4454453a20546f6b656e207472616e73666572206661696c65640000000000005f82015250565b5f613621601a83612c39565b915061362c826135ed565b602082019050919050565b5f6020820190508181035f83015261364e81613615565b9050919050565b7f4454453a205472616465206e6f7420696e2044697370757465642073746174655f82015250565b5f613689602083612c39565b915061369482613655565b602082019050919050565b5f6020820190508181035f8301526136b68161367d565b9050919050565b7f4454453a204661696c656420746f20726566756e6420746f20627579657200005f82015250565b5f6136f1601e83612c39565b91506136fc826136bd565b602082019050919050565b5f6020820190508181035f83015261371e816136e5565b9050919050565b7f4454453a204661696c656420746f207472616e7366657220746f2073656c6c655f8201527f7200000000000000000000000000000000000000000000000000000000000000602082015250565b5f61377f602183612c39565b915061378a82613725565b604082019050919050565b5f6020820190508181035f8301526137ac81613773565b9050919050565b6137bc81612ea5565b82525050565b5f6020820190506137d55f8301846137b3565b92915050565b7f4454453a2053656c6c657220616464726573732063616e6e6f74206265207a655f8201527f726f000000000000000000000000000000000000000000000000000000000000602082015250565b5f613835602283612c39565b9150613840826137db565b604082019050919050565b5f6020820190508181035f83015261386281613829565b9050919050565b7f4454453a20416d6f756e74206d7573742062652067726561746572207468616e5f8201527f207a65726f000000000000000000000000000000000000000000000000000000602082015250565b5f6138c3602583612c39565b91506138ce82613869565b604082019050919050565b5f6020820190508181035f8301526138f0816138b7565b9050919050565b5f61390182612af8565b91507fffffffffffffffffffffffffffffffffffffffffffffffffffffffffffffffff820361393357613932613499565b5b600182019050919050565b7f4e487b71000000000000000000000000000000000000000000000000000000005f52604160045260245ffd5b5f819050815f5260205f209050919050565b5f6020601f8301049050919050565b5f82821b905092915050565b5f600883026139c77fffffffffffffffffffffffffffffffffffffffffffffffffffffffffffffffff8261398c565b6139d1868361398c565b95508019841693508086168417925050509392505050565b5f613a036139fe6139f984612af8565b612fab565b612af8565b9050919050565b5f819050919050565b613a1c836139e9565b613a30613a2882613a0a565b848454613998565b825550505050565b5f5f905090565b613a47613a38565b613a52818484613a13565b505050565b5b81811015613a7557613a6a5f82613a3f565b600181019050613a58565b5050565b601f821115613aba57613a8b8161396b565b613a948461397d565b81016020851015613aa3578190505b613ab7613aaf8561397d565b830182613a57565b50505b505050565b5f82821c905092915050565b5f613ada5f1984600802613abf565b1980831691505092915050565b5f613af28383613acb565b9150826002028217905092915050565b613b0b82612c2f565b67ffffffffffffffff811115613b2457613b2361393e565b5b613b2e8254613401565b613b39828285613a79565b5f60209050601f831160018114613b6a575f8415613b58578287015190505b613b628582613ae7565b865550613bc9565b601f198416613b788661396b565b5f5b82811015613b9f57848901518255600182019150602085019450602081019050613b7a565b86831015613bbc5784890151613bb8601f891682613acb565b8355505b6001600288020188555050505b505050505050565b5f604082019050613be45f830185612b95565b613bf16020830184612c20565b9392505050565b5f604082019050613c0b5f830185612b86565b613c186020830184612b86565b9392505050565b7f4454453a2043616e206f6e6c792063616e63656c206120747261646520696e205f8201527f4465706f73697465642073746174650000000000000000000000000000000000602082015250565b5f613c79602f83612c39565b9150613c8482613c1f565b604082019050919050565b5f6020820190508181035f830152613ca681613c6d565b9050919050565b7f4454453a205472616465206e6f7420696e204465706f736974656420737461745f8201527f6500000000000000000000000000000000000000000000000000000000000000602082015250565b5f613d07602183612c39565b9150613d1282613cad565b604082019050919050565b5f6020820190508181035f830152613d3481613cfb565b9050919050565b7f4454453a20547261636b696e67206e756d6265722063616e6e6f7420626520655f8201527f6d70747900000000000000000000000000000000000000000000000000000000602082015250565b5f613d95602483612c39565b9150613da082613d3b565b604082019050919050565b5f6020820190508181035f830152613dc281613d89565b9050919050565b7f4454453a204a6f62204944206e6f7420736574000000000000000000000000005f82015250565b5f613dfd601383612c39565b9150613e0882613dc9565b602082019050919050565b5f6020820190508181035f830152613e2a81613df1565b9050919050565b7f4454453a20547261636b696e6720415049206b6579206e6f74207365740000005f82015250565b5f613e65601d83612c39565b9150613e7082613e31565b602082019050919050565b5f6020820190508181035f830152613e9281613e59565b9050919050565b5f82905092915050565b613ead8383613e99565b67ffffffffffffffff811115613ec657613ec561393e565b5b613ed08254613401565b613edb828285613a79565b5f601f831160018114613f08575f8415613ef6578287013590505b613f008582613ae7565b865550613f67565b601f198416613f168661396b565b5f5b82811015613f3d57848901358255600182019150602085019450602081019050613f18565b86831015613f5a5784890135613f56601f891682613acb565b8355505b6001600288020188555050505b50505050505050565b5f81905092915050565b7f68747470733a2f2f696e666f2e7377656574747261636b65722e636f2e6b722f5f8201527f6170692f76312f747261636b696e67496e666f3f745f636f64653d303126745f60208201527f696e766f6963653d000000000000000000000000000000000000000000000000604082015250565b5f613ffa604883613f70565b915061400582613f7a565b604882019050919050565b828183375f83830152505050565b5f6140298385613f70565b9350614036838584614010565b82840190509392505050565b7f26745f6b65793d00000000000000000000000000000000000000000000000000815250565b5f815461407481613401565b61407e8186613f70565b9450600182165f811461409857600181146140ad576140df565b60ff19831686528115158202860193506140df565b6140b68561396b565b5f5b838110156140d7578154818901526001820191506020810190506140b8565b838801955050505b50505092915050565b5f6140f282613fee565b91506140ff82858761401e565b915061410a82614042565b60078201915061411a8284614068565b9150819050949350505050565b5f7fffffffff0000000000000000000000000000000000000000000000000000000082169050919050565b61415b81614127565b82525050565b5f81519050919050565b5f82825260208201905092915050565b5f61418582614161565b61418f818561416b565b935061419f818560208601612c49565b6141a881612c57565b840191505092915050565b5f604083015f8301518482035f8601526141cd828261417b565b91505060208301516141e26020860182612d77565b508091505092915050565b5f60a083015f8301516142025f860182612d95565b5060208301516142156020860182612d68565b5060408301516142286040860182614152565b50606083015161423b6060860182612d77565b506080830151848203608086015261425382826141b3565b9150508091505092915050565b61426981613159565b82525050565b6142788161311c565b82525050565b5f819050919050565b5f60ff82169050919050565b5f6142ad6142a86142a38461427e565b612fab565b614287565b9050919050565b6142bd81614293565b82525050565b5f6080820190508181035f8301526142db81876141ed565b90506142ea6020830186614260565b6142f7604083018561426f565b61430460608301846142b4565b95945050505050565b5f8151905061431b81612b01565b92915050565b5f6020828403121561433657614335612af0565b5b5f6143438482850161430d565b91505092915050565b5f6143578385612c39565b9350614364838584614010565b61436d83612c57565b840190509392505050565b5f6020820190508181035f83015261439181848661434c565b90509392505050565b7f4454453a2043616e206f6e6c79206469737075746520696e2044656c697665725f8201527f6564207374617465000000000000000000000000000000000000000000000000602082015250565b5f6143f4602883612c39565b91506143ff8261439a565b604082019050919050565b5f6020820190508181035f830152614421816143e8565b9050919050565b7f4454453a204469737075746520706572696f64206973206f76657200000000005f82015250565b5f61445c601b83612c39565b915061446782614428565b602082019050919050565b5f6020820190508181035f83015261448981614450565b9050919050565b7f4454453a205472616465206e6f7420696e2043726561746564207374617465005f82015250565b5f6144c4601f83612c39565b91506144cf82614490565b602082019050919050565b5f6020820190508181035f8301526144f1816144b8565b9050919050565b5f60608201905061450b5f830186612b86565b6145186020830185612b86565b6145256040830184612b95565b949350505050565b7f4454453a205472616465206e6f7420696e2044656c69766572656420737461745f8201527f6500000000000000000000000000000000000000000000000000000000000000602082015250565b5f614587602183612c39565b91506145928261452d565b604082019050919050565b5f6020820190508181035f8301526145b48161457b565b9050919050565b7f4e487b71000000000000000000000000000000000000000000000000000000005f52601260045260245ffd5b5f6145f282612af8565b91506145fd83612af8565b92508261460d5761460c6145bb565b5b828206905092915050565b5f61462282612af8565b915061462d83612af8565b925082820390508181111561464557614644613499565b5b92915050565b5f61465582612af8565b915061466083612af8565b925082820261466e81612af8565b9150828204841483151761468557614684613499565b5b5092915050565b5f8160011c9050919050565b5f5f8291508390505b60018511156146e1578086048111156146bd576146bc613499565b5b60018516156146cc5780820291505b80810290506146da8561468c565b94506146a1565b94509492505050565b5f826146f957600190506147b4565b81614706575f90506147b4565b816001811461471c576002811461472657614755565b60019150506147b4565b60ff84111561473857614737613499565b5b8360020a91508482111561474f5761474e613499565b5b506147b4565b5060208310610133831016604e8410600b841016171561478a5782820a90508381111561478557614784613499565b5b6147b4565b6147978484846001614698565b925090508184048111156147ae576147ad613499565b5b81810290505b9392505050565b5f6147c582612af8565b91506147d083612af8565b92506147fd7fffffffffffffffffffffffffffffffffffffffffffffffffffffffffffffffff84846146ea565b90509291505056fea2646970667358221220e5f584127b6ff2824b9ec5f439c7ee564120c4108acc4812ef105edcf145fb6f64736f6c634300081e0033","linkReferences":{}},"methodIdentifiers":{"COORDINATOR()":"3b2bcbf1","STABLE_KRW_ADDRESS()":"eb0fc59c","cancelBySellerAfterDeposit(uint256)":"6984781b","cancelTradeByBuyer(uint256)":"0aa38213","confirmDelivery(uint256)":"fd84cb97","createTrade(address,uint256,bytes32)":"383605f3","deliveryTrackingJobId()":"566ae9a1","deposit(uint256)":"b6b55f25","disputePeriod()":"5bf31d4d","getTrade(uint256)":"2db25e05","owner()":"8da5cb5b","raiseDispute(uint256)":"a5c1674e","rawFulfillDataRequest(uint256,uint128)":"45b9b6fb","renounceOwnership()":"715018a6","requestToTradeId(uint256)":"81ec8fed","resolveDispute(uint256,bool)":"34b25ee2","setDeliveryTrackingJobId(bytes32)":"2552b4ba","setDisputePeriod(uint256)":"a83ba53e","setTrackingApiKey(string)":"e5a68cb6","submitTrackingInfo(uint256,string,uint64,uint32)":"8ba19317","tradeCounter()":"660d15b5","trades(uint256)":"1e6c598e","transferOwnership(address)":"f2fde38b","withdraw(uint256)":"2e1a7d4d"},"id":38}