{"abi":[{"type":"constructor","inputs":[{"name":"_stableKRWAddress","type":"address","internalType":"address"},{"name":"_coordinator","type":"address","internalType":"address"},{"name":"_initialOwner","type":"address","internalType":"address"},{"name":"_trackingApiKey","type":"string","internalType":"string"}],"stateMutability":"nonpayable"},{"type":"function","name":"COORDINATOR","inputs":[],"outputs":[{"name":"","type":"address","internalType":"contract IRequestResponseCoordinator"}],"stateMutability":"view"},{"type":"function","name":"STABLE_KRW_ADDRESS","inputs":[],"outputs":[{"name":"","type":"address","internalType":"contract IERC20"}],"stateMutability":"view"},{"type":"function","name":"cancelBySellerAfterDeposit","inputs":[{"name":"_tradeId","type":"uint256","internalType":"uint256"}],"outputs":[],"stateMutability":"nonpayable"},{"type":"function","name":"cancelTradeByBuyer","inputs":[{"name":"_tradeId","type":"uint256","internalType":"uint256"}],"outputs":[],"stateMutability":"nonpayable"},{"type":"function","name":"confirmDelivery","inputs":[{"name":"_tradeId","type":"uint256","internalType":"uint256"}],"outputs":[],"stateMutability":"nonpayable"},{"type":"function","name":"createTrade","inputs":[{"name":"_seller","type":"address","internalType":"address"},{"name":"_amount","type":"uint256","internalType":"uint256"},{"name":"_deliveryAddressHash","type":"bytes32","internalType":"bytes32"}],"outputs":[{"name":"tradeId","type":"uint256","internalType":"uint256"}],"stateMutability":"nonpayable"},{"type":"function","name":"deliveryTrackingJobId","inputs":[],"outputs":[{"name":"","type":"bytes32","internalType":"bytes32"}],"stateMutability":"view"},{"type":"function","name":"deposit","inputs":[{"name":"_tradeId","type":"uint256","internalType":"uint256"}],"outputs":[],"stateMutability":"nonpayable"},{"type":"function","name":"disputePeriod","inputs":[],"outputs":[{"name":"","type":"uint256","internalType":"uint256"}],"stateMutability":"view"},{"type":"function","name":"getTrade","inputs":[{"name":"_tradeId","type":"uint256","internalType":"uint256"}],"outputs":[{"name":"","type":"tuple","internalType":"struct DecentralizedTradeEscrow.Trade","components":[{"name":"buyer","type":"address","internalType":"address"},{"name":"seller","type":"address","internalType":"address"},{"name":"amount","type":"uint256","internalType":"uint256"},{"name":"status","type":"uint8","internalType":"enum DecentralizedTradeEscrow.TradeStatus"},{"name":"deliveryAddressHash","type":"bytes32","internalType":"bytes32"},{"name":"trackingNumber","type":"string","internalType":"string"},{"name":"deliveredAt","type":"uint256","internalType":"uint256"}]}],"stateMutability":"view"},{"type":"function","name":"owner","inputs":[],"outputs":[{"name":"","type":"address","internalType":"address"}],"stateMutability":"view"},{"type":"function","name":"raiseDispute","inputs":[{"name":"_tradeId","type":"uint256","internalType":"uint256"}],"outputs":[],"stateMutability":"nonpayable"},{"type":"function","name":"rawFulfillDataRequest","inputs":[{"name":"requestId","type":"uint256","internalType":"uint256"},{"name":"response","type":"uint128","internalType":"uint128"}],"outputs":[],"stateMutability":"nonpayable"},{"type":"function","name":"renounceOwnership","inputs":[],"outputs":[],"stateMutability":"nonpayable"},{"type":"function","name":"requestToTradeId","inputs":[{"name":"","type":"uint256","internalType":"uint256"}],"outputs":[{"name":"","type":"uint256","internalType":"uint256"}],"stateMutability":"view"},{"type":"function","name":"resolveDispute","inputs":[{"name":"_tradeId","type":"uint256","internalType":"uint256"},{"name":"_refundToBuyer","type":"bool","internalType":"bool"}],"outputs":[],"stateMutability":"nonpayable"},{"type":"function","name":"setDeliveryTrackingJobId","inputs":[{"name":"_jobId","type":"bytes32","internalType":"bytes32"}],"outputs":[],"stateMutability":"nonpayable"},{"type":"function","name":"setDisputePeriod","inputs":[{"name":"_newPeriod","type":"uint256","internalType":"uint256"}],"outputs":[],"stateMutability":"nonpayable"},{"type":"function","name":"setTrackingApiKey","inputs":[{"name":"_newKey","type":"string","internalType":"string"}],"outputs":[],"stateMutability":"nonpayable"},{"type":"function","name":"submitTrackingInfo","inputs":[{"name":"_tradeId","type":"uint256","internalType":"uint256"},{"name":"_trackingNumber","type":"string","internalType":"string"},{"name":"_accId","type":"uint64","internalType":"uint64"},{"name":"_callbackGasLimit","type":"uint32","internalType":"uint32"}],"outputs":[{"name":"requestId","type":"uint256","internalType":"uint256"}],"stateMutability":"nonpayable"},{"type":"function","name":"tradeCounter","inputs":[],"outputs":[{"name":"","type":"uint256","internalType":"uint256"}],"stateMutability":"view"},{"type":"function","name":"trades","inputs":[{"name":"","type":"uint256","internalType":"uint256"}],"outputs":[{"name":"buyer","type":"address","internalType":"address"},{"name":"seller","type":"address","internalType":"address"},{"name":"amount","type":"uint256","internalType":"uint256"},{"name":"status","type":"uint8","internalType":"enum DecentralizedTradeEscrow.TradeStatus"},{"name":"deliveryAddressHash","type":"bytes32","internalType":"bytes32"},{"name":"trackingNumber","type":"string","internalType":"string"},{"name":"deliveredAt","type":"uint256","internalType":"uint256"}],"stateMutability":"view"},{"type":"function","name":"transferOwnership","inputs":[{"name":"newOwner","type":"address","internalType":"address"}],"outputs":[],"stateMutability":"nonpayable"},{"type":"function","name":"withdraw","inputs":[{"name":"_tradeId","type":"uint256","internalType":"uint256"}],"outputs":[],"stateMutability":"nonpayable"},{"type":"event","name":"DisputePeriodUpdated","inputs":[{"name":"newPeriod","type":"uint256","indexed":false,"internalType":"uint256"}],"anonymous":false},{"type":"event","name":"DisputeResolved","inputs":[{"name":"tradeId","type":"uint256","indexed":true,"internalType":"uint256"},{"name":"resolver","type":"address","indexed":true,"internalType":"address"},{"name":"refundedToBuyer","type":"bool","indexed":false,"internalType":"bool"}],"anonymous":false},{"type":"event","name":"OwnershipTransferred","inputs":[{"name":"previousOwner","type":"address","indexed":true,"internalType":"address"},{"name":"newOwner","type":"address","indexed":true,"internalType":"address"}],"anonymous":false},{"type":"event","name":"TrackingApiKeyUpdated","inputs":[],"anonymous":false},{"type":"event","name":"TrackingInfoSubmitted","inputs":[{"name":"tradeId","type":"uint256","indexed":true,"internalType":"uint256"},{"name":"requestId","type":"uint256","indexed":true,"internalType":"uint256"},{"name":"trackingNumber","type":"string","indexed":false,"internalType":"string"}],"anonymous":false},{"type":"event","name":"TradeCanceled","inputs":[{"name":"tradeId","type":"uint256","indexed":true,"internalType":"uint256"},{"name":"canceledBy","type":"address","indexed":true,"internalType":"address"}],"anonymous":false},{"type":"event","name":"TradeCompleted","inputs":[{"name":"tradeId","type":"uint256","indexed":true,"internalType":"uint256"}],"anonymous":false},{"type":"event","name":"TradeCreated","inputs":[{"name":"tradeId","type":"uint256","indexed":true,"internalType":"uint256"},{"name":"buyer","type":"address","indexed":true,"internalType":"address"},{"name":"seller","type":"address","indexed":true,"internalType":"address"},{"name":"amount","type":"uint256","indexed":false,"internalType":"uint256"},{"name":"deliveryAddressHash","type":"bytes32","indexed":false,"internalType":"bytes32"}],"anonymous":false},{"type":"event","name":"TradeDelivered","inputs":[{"name":"tradeId","type":"uint256","indexed":true,"internalType":"uint256"},{"name":"timestamp","type":"uint256","indexed":false,"internalType":"uint256"}],"anonymous":false},{"type":"event","name":"TradeDeposited","inputs":[{"name":"tradeId","type":"uint256","indexed":true,"internalType":"uint256"}],"anonymous":false},{"type":"event","name":"TradeDisputed","inputs":[{"name":"tradeId","type":"uint256","indexed":true,"internalType":"uint256"}],"anonymous":false},{"type":"event","name":"TradeWithdrawn","inputs":[{"name":"tradeId","type":"uint256","indexed":true,"internalType":"uint256"}],"anonymous":false},{"type":"error","name":"OnlyCoordinatorCanFulfill","inputs":[{"name":"have","type":"address","internalType":"address"},{"name":"want","type":"address","internalType":"address"}]},{"type":"error","name":"OwnableInvalidOwner","inputs":[{"name":"owner","type":"address","internalType":"address"}]},{"type":"error","name":"OwnableUnauthorizedAccount","inputs":[{"name":"account","type":"address","internalType":"address"}]},{"type":"error","name":"ReentrancyGuardReentrantCall","inputs":[]}],"bytecode":{"object":"0x60c060405234801561000f575f5ffd5b506040516154e43803806154e48339818101604052810190610031919061063b565b81838073ffffffffffffffffffffffffffffffffffffffff1660808173ffffffffffffffffffffffffffffffffffffffff16815250506080515063a185c35f60e01b5f5f6040516020016100849061070f565b6040516020818303038152906040528051906020012081526020019081526020015f205f6101000a81548163ffffffff021916908360e01c02179055506080515063d1bf555c60e01b5f5f6040516020016100de9061076d565b6040516020818303038152906040528051906020012081526020019081526020015f205f6101000a81548163ffffffff021916908360e01c021790555060805150637961841760e01b5f5f604051602001610138906107cb565b6040516020818303038152906040528051906020012081526020019081526020015f205f6101000a81548163ffffffff021916908360e01c02179055506080515063f30be55160e01b5f5f60405160200161019290610829565b6040516020818303038152906040528051906020012081526020019081526020015f205f6101000a81548163ffffffff021916908360e01c02179055506080515063bf8542a960e01b5f5f6040516020016101ec90610887565b6040516020818303038152906040528051906020012081526020019081526020015f205f6101000a81548163ffffffff021916908360e01c02179055506080515063c6f3401360e01b5f5f604051602001610246906108e5565b6040516020818303038152906040528051906020012081526020019081526020015f205f6101000a81548163ffffffff021916908360e01c0217905550505f73ffffffffffffffffffffffffffffffffffffffff168173ffffffffffffffffffffffffffffffffffffffff16036102f4575f6040517f1e4fbdf70000000000000000000000000000000000000000000000000000000081526004016102eb9190610908565b60405180910390fd5b610303816103d160201b60201c565b5060016002819055505f73ffffffffffffffffffffffffffffffffffffffff168473ffffffffffffffffffffffffffffffffffffffff160361037a576040517f08c379a0000000000000000000000000000000000000000000000000000000008152600401610371906109a1565b60405180910390fd5b8373ffffffffffffffffffffffffffffffffffffffff1660a08173ffffffffffffffffffffffffffffffffffffffff168152505080600890816103bd9190610bcf565b5062093a8060078190555050505050610c9e565b5f60015f9054906101000a900473ffffffffffffffffffffffffffffffffffffffff1690508160015f6101000a81548173ffffffffffffffffffffffffffffffffffffffff021916908373ffffffffffffffffffffffffffffffffffffffff1602179055508173ffffffffffffffffffffffffffffffffffffffff168173ffffffffffffffffffffffffffffffffffffffff167f8be0079c531659141344cd1fd0a4f28419497f9722a3daafe3b4186f6b6457e060405160405180910390a35050565b5f604051905090565b5f5ffd5b5f5ffd5b5f73ffffffffffffffffffffffffffffffffffffffff82169050919050565b5f6104ce826104a5565b9050919050565b6104de816104c4565b81146104e8575f5ffd5b50565b5f815190506104f9816104d5565b92915050565b5f5ffd5b5f5ffd5b5f601f19601f8301169050919050565b7f4e487b71000000000000000000000000000000000000000000000000000000005f52604160045260245ffd5b61054d82610507565b810181811067ffffffffffffffff8211171561056c5761056b610517565b5b80604052505050565b5f61057e610494565b905061058a8282610544565b919050565b5f67ffffffffffffffff8211156105a9576105a8610517565b5b6105b282610507565b9050602081019050919050565b8281835e5f83830152505050565b5f6105df6105da8461058f565b610575565b9050828152602081018484840111156105fb576105fa610503565b5b6106068482856105bf565b509392505050565b5f82601f830112610622576106216104ff565b5b81516106328482602086016105cd565b91505092915050565b5f5f5f5f608085870312156106535761065261049d565b5b5f610660878288016104eb565b9450506020610671878288016104eb565b9350506040610682878288016104eb565b925050606085015167ffffffffffffffff8111156106a3576106a26104a1565b5b6106af8782880161060e565b91505092959194509250565b5f81905092915050565b7f75696e74313238000000000000000000000000000000000000000000000000005f82015250565b5f6106f96007836106bb565b9150610704826106c5565b600782019050919050565b5f610719826106ed565b9150819050919050565b7f696e7432353600000000000000000000000000000000000000000000000000005f82015250565b5f6107576006836106bb565b915061076282610723565b600682019050919050565b5f6107778261074b565b9150819050919050565b7f626f6f6c000000000000000000000000000000000000000000000000000000005f82015250565b5f6107b56004836106bb565b91506107c082610781565b600482019050919050565b5f6107d5826107a9565b9150819050919050565b7f737472696e6700000000000000000000000000000000000000000000000000005f82015250565b5f6108136006836106bb565b915061081e826107df565b600682019050919050565b5f61083382610807565b9150819050919050565b7f62797465733332000000000000000000000000000000000000000000000000005f82015250565b5f6108716007836106bb565b915061087c8261083d565b600782019050919050565b5f61089182610865565b9150819050919050565b7f62797465730000000000000000000000000000000000000000000000000000005f82015250565b5f6108cf6005836106bb565b91506108da8261089b565b600582019050919050565b5f6108ef826108c3565b9150819050919050565b610902816104c4565b82525050565b5f60208201905061091b5f8301846108f9565b92915050565b5f82825260208201905092915050565b7f4454453a20537461626c654b525720616464726573732063616e6e6f742062655f8201527f207a65726f000000000000000000000000000000000000000000000000000000602082015250565b5f61098b602583610921565b915061099682610931565b604082019050919050565b5f6020820190508181035f8301526109b88161097f565b9050919050565b5f81519050919050565b7f4e487b71000000000000000000000000000000000000000000000000000000005f52602260045260245ffd5b5f6002820490506001821680610a0d57607f821691505b602082108103610a2057610a1f6109c9565b5b50919050565b5f819050815f5260205f209050919050565b5f6020601f8301049050919050565b5f82821b905092915050565b5f60088302610a827fffffffffffffffffffffffffffffffffffffffffffffffffffffffffffffffff82610a47565b610a8c8683610a47565b95508019841693508086168417925050509392505050565b5f819050919050565b5f819050919050565b5f610ad0610acb610ac684610aa4565b610aad565b610aa4565b9050919050565b5f819050919050565b610ae983610ab6565b610afd610af582610ad7565b848454610a53565b825550505050565b5f5f905090565b610b14610b05565b610b1f818484610ae0565b505050565b5b81811015610b4257610b375f82610b0c565b600181019050610b25565b5050565b601f821115610b8757610b5881610a26565b610b6184610a38565b81016020851015610b70578190505b610b84610b7c85610a38565b830182610b24565b50505b505050565b5f82821c905092915050565b5f610ba75f1984600802610b8c565b1980831691505092915050565b5f610bbf8383610b98565b9150826002028217905092915050565b610bd8826109bf565b67ffffffffffffffff811115610bf157610bf0610517565b5b610bfb82546109f6565b610c06828285610b46565b5f60209050601f831160018114610c37575f8415610c25578287015190505b610c2f8582610bb4565b865550610c96565b601f198416610c4586610a26565b5f5b82811015610c6c57848901518255600182019150602085019450602081019050610c47565b86831015610c895784890151610c85601f891682610b98565b8355505b6001600288020188555050505b505050505050565b60805160a0516147ed610cf75f395f8181610aa101528181610c7f01528181610e00015281816114c201528181611de70152611f6c01525f818161127e015281816112a301528181611939015261242601526147ed5ff3fe608060405234801561000f575f5ffd5b5060043610610156575f3560e01c80636984781b116100c1578063a83ba53e1161007a578063a83ba53e146103b4578063b6b55f25146103d0578063e5a68cb6146103ec578063eb0fc59c14610408578063f2fde38b14610426578063fd84cb971461044257610156565b80636984781b146102f4578063715018a61461031057806381ec8fed1461031a5780638ba193171461034a5780638da5cb5b1461037a578063a5c1674e1461039857610156565b8063383605f311610113578063383605f3146102305780633b2bcbf11461026057806345b9b6fb1461027e578063566ae9a11461029a5780635bf31d4d146102b8578063660d15b5146102d657610156565b80630aa382131461015a5780631e6c598e146101765780632552b4ba146101ac5780632db25e05146101c85780632e1a7d4d146101f857806334b25ee214610214575b5f5ffd5b610174600480360381019061016f9190612b11565b61045e565b005b610190600480360381019061018b9190612b11565b6105fe565b6040516101a39796959493929190612c85565b60405180910390f35b6101c660048036038101906101c19190612d23565b61070c565b005b6101e260048036038101906101dd9190612b11565b61071e565b6040516101ef9190612e6b565b60405180910390f35b610212600480360381019061020d9190612b11565b6108da565b005b61022e60048036038101906102299190612ec0565b610bdc565b005b61024a60048036038101906102459190612f28565b610fc0565b6040516102579190612f78565b60405180910390f35b61026861127c565b6040516102759190612fec565b60405180910390f35b6102986004803603810190610293919061304a565b6112a0565b005b6102a2611345565b6040516102af9190613088565b60405180910390f35b6102c061134b565b6040516102cd9190612f78565b60405180910390f35b6102de611351565b6040516102eb9190612f78565b60405180910390f35b61030e60048036038101906103099190612b11565b611357565b005b61031861160e565b005b610334600480360381019061032f9190612b11565b611621565b6040516103419190612f78565b60405180910390f35b610364600480360381019061035f9190613178565b611636565b6040516103719190612f78565b60405180910390f35b610382611a64565b60405161038f91906131fc565b60405180910390f35b6103b260048036038101906103ad9190612b11565b611a8c565b005b6103ce60048036038101906103c99190612b11565b611c69565b005b6103ea60048036038101906103e59190612b11565b611cb2565b005b61040660048036038101906104019190613215565b611f20565b005b610410611f6a565b60405161041d9190613280565b60405180910390f35b610440600480360381019061043b9190613299565b611f8e565b005b61045c60048036038101906104579190612b11565b612012565b005b8060055f8281526020019081526020015f205f015f9054906101000a900473ffffffffffffffffffffffffffffffffffffffff1673ffffffffffffffffffffffffffffffffffffffff163373ffffffffffffffffffffffffffffffffffffffff16146104ff576040517f08c379a00000000000000000000000000000000000000000000000000000000081526004016104f69061330e565b60405180910390fd5b5f60055f8481526020019081526020015f2090505f600781111561052657610525612b8a565b5b816003015f9054906101000a900460ff16600781111561054957610548612b8a565b5b14610589576040517f08c379a00000000000000000000000000000000000000000000000000000000081526004016105809061339c565b60405180910390fd5b6006816003015f6101000a81548160ff021916908360078111156105b0576105af612b8a565b5b02179055503373ffffffffffffffffffffffffffffffffffffffff16837f5ae0ecd682344c6aaebb54d6a93dae65cff74864b6ddce7a5a18c115fb467b7560405160405180910390a3505050565b6005602052805f5260405f205f91509050805f015f9054906101000a900473ffffffffffffffffffffffffffffffffffffffff1690806001015f9054906101000a900473ffffffffffffffffffffffffffffffffffffffff1690806002015490806003015f9054906101000a900460ff1690806004015490806005018054610685906133e7565b80601f01602080910402602001604051908101604052809291908181526020018280546106b1906133e7565b80156106fc5780601f106106d3576101008083540402835291602001916106fc565b820191905f5260205f20905b8154815290600101906020018083116106df57829003601f168201915b5050505050908060060154905087565b61071461219c565b8060038190555050565b6107266129e2565b60055f8381526020019081526020015f206040518060e00160405290815f82015f9054906101000a900473ffffffffffffffffffffffffffffffffffffffff1673ffffffffffffffffffffffffffffffffffffffff1673ffffffffffffffffffffffffffffffffffffffff168152602001600182015f9054906101000a900473ffffffffffffffffffffffffffffffffffffffff1673ffffffffffffffffffffffffffffffffffffffff1673ffffffffffffffffffffffffffffffffffffffff16815260200160028201548152602001600382015f9054906101000a900460ff16600781111561081957610818612b8a565b5b600781111561082b5761082a612b8a565b5b815260200160048201548152602001600582018054610849906133e7565b80601f0160208091040260200160405190810160405280929190818152602001828054610875906133e7565b80156108c05780601f10610897576101008083540402835291602001916108c0565b820191905f5260205f20905b8154815290600101906020018083116108a357829003601f168201915b505050505081526020016006820154815250509050919050565b6108e2612223565b8060055f8281526020019081526020015f206001015f9054906101000a900473ffffffffffffffffffffffffffffffffffffffff1673ffffffffffffffffffffffffffffffffffffffff163373ffffffffffffffffffffffffffffffffffffffff1614610984576040517f08c379a000000000000000000000000000000000000000000000000000000000815260040161097b90613461565b60405180910390fd5b5f60055f8481526020019081526020015f2090505f600460078111156109ad576109ac612b8a565b5b826003015f9054906101000a900460ff1660078111156109d0576109cf612b8a565b5b1490505f600360078111156109e8576109e7612b8a565b5b836003015f9054906101000a900460ff166007811115610a0b57610a0a612b8a565b5b148015610a2957506007548360060154610a2591906134ac565b4210155b90508180610a345750805b610a73576040517f08c379a0000000000000000000000000000000000000000000000000000000008152600401610a6a9061354f565b60405180910390fd5b6005836003015f6101000a81548160ff02191690836007811115610a9a57610a99612b8a565b5b02179055507f000000000000000000000000000000000000000000000000000000000000000073ffffffffffffffffffffffffffffffffffffffff1663a9059cbb846001015f9054906101000a900473ffffffffffffffffffffffffffffffffffffffff1685600201546040518363ffffffff1660e01b8152600401610b2192919061356d565b6020604051808303815f875af1158015610b3d573d5f5f3e3d5ffd5b505050506040513d601f19601f82011682018060405250810190610b6191906135a8565b610ba0576040517f08c379a0000000000000000000000000000000000000000000000000000000008152600401610b979061361d565b60405180910390fd5b847f9d400445a947fa264319211f6a70d775bd4a2877b85d7a770b6524b1274b78f160405160405180910390a250505050610bd9612267565b50565b610be461219c565b610bec612223565b5f60055f8481526020019081526020015f209050600780811115610c1357610c12612b8a565b5b816003015f9054906101000a900460ff166007811115610c3657610c35612b8a565b5b14610c76576040517f08c379a0000000000000000000000000000000000000000000000000000000008152600401610c6d90613685565b60405180910390fd5b8115610dfd575f7f000000000000000000000000000000000000000000000000000000000000000073ffffffffffffffffffffffffffffffffffffffff1663a9059cbb835f015f9054906101000a900473ffffffffffffffffffffffffffffffffffffffff1684600201546040518363ffffffff1660e01b8152600401610cfe92919061356d565b6020604051808303815f875af1158015610d1a573d5f5f3e3d5ffd5b505050506040513d601f19601f82011682018060405250810190610d3e91906135a8565b905080610d80576040517f08c379a0000000000000000000000000000000000000000000000000000000008152600401610d77906136ed565b60405180910390fd5b6006826003015f6101000a81548160ff02191690836007811115610da757610da6612b8a565b5b0217905550610db4611a64565b73ffffffffffffffffffffffffffffffffffffffff16847f5ae0ecd682344c6aaebb54d6a93dae65cff74864b6ddce7a5a18c115fb467b7560405160405180910390a350610f5d565b5f7f000000000000000000000000000000000000000000000000000000000000000073ffffffffffffffffffffffffffffffffffffffff1663a9059cbb836001015f9054906101000a900473ffffffffffffffffffffffffffffffffffffffff1684600201546040518363ffffffff1660e01b8152600401610e8092919061356d565b6020604051808303815f875af1158015610e9c573d5f5f3e3d5ffd5b505050506040513d601f19601f82011682018060405250810190610ec091906135a8565b905080610f02576040517f08c379a0000000000000000000000000000000000000000000000000000000008152600401610ef99061377b565b60405180910390fd5b6004826003015f6101000a81548160ff02191690836007811115610f2957610f28612b8a565b5b0217905550837f60f91a26281f20fb528663f4da55773c83e2ee8a7a5dddb6d1753749e81dc49b60405160405180910390a2505b610f65611a64565b73ffffffffffffffffffffffffffffffffffffffff16837f8fdd4548a8481406b6e29c0d6f25e27cd72502f79f4adf409468502e7920dabc84604051610fab91906137a8565b60405180910390a350610fbc612267565b5050565b5f5f73ffffffffffffffffffffffffffffffffffffffff168473ffffffffffffffffffffffffffffffffffffffff160361102f576040517f08c379a000000000000000000000000000000000000000000000000000000000815260040161102690613831565b60405180910390fd5b5f8311611071576040517f08c379a0000000000000000000000000000000000000000000000000000000008152600401611068906138bf565b60405180910390fd5b60045f815480929190611083906138dd565b919050555060045490506040518060e001604052803373ffffffffffffffffffffffffffffffffffffffff1681526020018573ffffffffffffffffffffffffffffffffffffffff1681526020018481526020015f60078111156110e9576110e8612b8a565b5b815260200183815260200160405180602001604052805f81525081526020015f81525060055f8381526020019081526020015f205f820151815f015f6101000a81548173ffffffffffffffffffffffffffffffffffffffff021916908373ffffffffffffffffffffffffffffffffffffffff1602179055506020820151816001015f6101000a81548173ffffffffffffffffffffffffffffffffffffffff021916908373ffffffffffffffffffffffffffffffffffffffff160217905550604082015181600201556060820151816003015f6101000a81548160ff021916908360078111156111db576111da612b8a565b5b02179055506080820151816004015560a08201518160050190816111ff9190613ae8565b5060c082015181600601559050508373ffffffffffffffffffffffffffffffffffffffff163373ffffffffffffffffffffffffffffffffffffffff16827f62ccf60fca5977a8357fa6f34ce9cd151965b86cfdf72293772ace9368dd06e9868660405161126d929190613bb7565b60405180910390a49392505050565b7f000000000000000000000000000000000000000000000000000000000000000081565b5f7f000000000000000000000000000000000000000000000000000000000000000090508073ffffffffffffffffffffffffffffffffffffffff163373ffffffffffffffffffffffffffffffffffffffff16146113365733816040517f1cf993f400000000000000000000000000000000000000000000000000000000815260040161132d929190613bde565b60405180910390fd5b6113408383612271565b505050565b60035481565b60075481565b60045481565b61135f612223565b8060055f8281526020019081526020015f206001015f9054906101000a900473ffffffffffffffffffffffffffffffffffffffff1673ffffffffffffffffffffffffffffffffffffffff163373ffffffffffffffffffffffffffffffffffffffff1614611401576040517f08c379a00000000000000000000000000000000000000000000000000000000081526004016113f890613461565b60405180910390fd5b5f60055f8481526020019081526020015f2090506001600781111561142957611428612b8a565b5b816003015f9054906101000a900460ff16600781111561144c5761144b612b8a565b5b1461148c576040517f08c379a000000000000000000000000000000000000000000000000000000000815260040161148390613c75565b60405180910390fd5b6006816003015f6101000a81548160ff021916908360078111156114b3576114b2612b8a565b5b02179055505f816002015490507f000000000000000000000000000000000000000000000000000000000000000073ffffffffffffffffffffffffffffffffffffffff1663a9059cbb835f015f9054906101000a900473ffffffffffffffffffffffffffffffffffffffff16836040518363ffffffff1660e01b815260040161153d92919061356d565b6020604051808303815f875af1158015611559573d5f5f3e3d5ffd5b505050506040513d601f19601f8201168201806040525081019061157d91906135a8565b6115bc576040517f08c379a00000000000000000000000000000000000000000000000000000000081526004016115b39061361d565b60405180910390fd5b3373ffffffffffffffffffffffffffffffffffffffff16847f5ae0ecd682344c6aaebb54d6a93dae65cff74864b6ddce7a5a18c115fb467b7560405160405180910390a350505061160b612267565b50565b61161661219c565b61161f5f612355565b565b6006602052805f5260405f205f915090505481565b5f8560055f8281526020019081526020015f206001015f9054906101000a900473ffffffffffffffffffffffffffffffffffffffff1673ffffffffffffffffffffffffffffffffffffffff163373ffffffffffffffffffffffffffffffffffffffff16146116d9576040517f08c379a00000000000000000000000000000000000000000000000000000000081526004016116d090613461565b60405180910390fd5b5f60055f8981526020019081526020015f2090506001600781111561170157611700612b8a565b5b816003015f9054906101000a900460ff16600781111561172457611723612b8a565b5b14611764576040517f08c379a000000000000000000000000000000000000000000000000000000000815260040161175b90613d03565b60405180910390fd5b5f87879050116117a9576040517f08c379a00000000000000000000000000000000000000000000000000000000081526004016117a090613d91565b60405180910390fd5b5f600880546117b7906133e7565b9050116117f9576040517f08c379a00000000000000000000000000000000000000000000000000000000081526004016117f090613df9565b60405180910390fd5b868682600501918261180c929190613e21565b505f60405160200161181d90613f42565b6040516020818303038152906040528051906020012090505f600190505f89896008604051602001611851939291906140c4565b60405160208183030381529060405290505f61186c84612418565b90506118b86040518060400160405280600381526020017f6765740000000000000000000000000000000000000000000000000000000000815250838361247a9092919063ffffffff16565b6119376040518060400160405280600481526020017f70617468000000000000000000000000000000000000000000000000000000008152506040518060400160405280600581526020017f6c6576656c0000000000000000000000000000000000000000000000000000008152508361247a9092919063ffffffff16565b7f000000000000000000000000000000000000000000000000000000000000000073ffffffffffffffffffffffffffffffffffffffff1663752f8c14828a8c876040518563ffffffff1660e01b81526004016119969493929190614275565b6020604051808303815f875af11580156119b2573d5f5f3e3d5ffd5b505050506040513d601f19601f820116820180604052508101906119d691906142d3565b96508b60065f8981526020019081526020015f20819055506002856003015f6101000a81548160ff02191690836007811115611a1557611a14612b8a565b5b0217905550868c7fed35b0807a3aa581b7d0240a96a11f989f6c7bc6472b3c82181dac90054fde2a8d8d604051611a4d92919061432a565b60405180910390a350505050505095945050505050565b5f60015f9054906101000a900473ffffffffffffffffffffffffffffffffffffffff16905090565b8060055f8281526020019081526020015f205f015f9054906101000a900473ffffffffffffffffffffffffffffffffffffffff1673ffffffffffffffffffffffffffffffffffffffff163373ffffffffffffffffffffffffffffffffffffffff1614611b2d576040517f08c379a0000000000000000000000000000000000000000000000000000000008152600401611b249061330e565b60405180910390fd5b5f60055f8481526020019081526020015f20905060036007811115611b5557611b54612b8a565b5b816003015f9054906101000a900460ff166007811115611b7857611b77612b8a565b5b14611bb8576040517f08c379a0000000000000000000000000000000000000000000000000000000008152600401611baf906143bc565b60405180910390fd5b6007548160060154611bca91906134ac565b4210611c0b576040517f08c379a0000000000000000000000000000000000000000000000000000000008152600401611c0290614424565b60405180910390fd5b6007816003015f6101000a81548160ff02191690836007811115611c3257611c31612b8a565b5b0217905550827f995328816eb12e50ec2691560298922cd9ead6191e59874ef2ef6ca8c766d72560405160405180910390a2505050565b611c7161219c565b806007819055507fa07016194ad6cf69ce63d15e6172d7d8bff3221f58442571a1f4b14b202ee6f981604051611ca79190612f78565b60405180910390a150565b8060055f8281526020019081526020015f205f015f9054906101000a900473ffffffffffffffffffffffffffffffffffffffff1673ffffffffffffffffffffffffffffffffffffffff163373ffffffffffffffffffffffffffffffffffffffff1614611d53576040517f08c379a0000000000000000000000000000000000000000000000000000000008152600401611d4a9061330e565b60405180910390fd5b5f60055f8481526020019081526020015f2090505f6007811115611d7a57611d79612b8a565b5b816003015f9054906101000a900460ff166007811115611d9d57611d9c612b8a565b5b14611ddd576040517f08c379a0000000000000000000000000000000000000000000000000000000008152600401611dd49061448c565b60405180910390fd5b5f816002015490507f000000000000000000000000000000000000000000000000000000000000000073ffffffffffffffffffffffffffffffffffffffff166323b872dd3330846040518463ffffffff1660e01b8152600401611e42939291906144aa565b6020604051808303815f875af1158015611e5e573d5f5f3e3d5ffd5b505050506040513d601f19601f82011682018060405250810190611e8291906135a8565b611ec1576040517f08c379a0000000000000000000000000000000000000000000000000000000008152600401611eb89061361d565b60405180910390fd5b6001826003015f6101000a81548160ff02191690836007811115611ee857611ee7612b8a565b5b0217905550837f32ac6dd600238cd1df1ada8454f3052e492968d78726df42310be01c83426b9160405160405180910390a250505050565b611f2861219c565b818160089182611f39929190613e21565b507f2b46648261ad50455442d8fae6be4dfe25024584eb0ff8ce6b143629054786f660405160405180910390a15050565b7f000000000000000000000000000000000000000000000000000000000000000081565b611f9661219c565b5f73ffffffffffffffffffffffffffffffffffffffff168173ffffffffffffffffffffffffffffffffffffffff1603612006575f6040517f1e4fbdf7000000000000000000000000000000000000000000000000000000008152600401611ffd91906131fc565b60405180910390fd5b61200f81612355565b50565b8060055f8281526020019081526020015f205f015f9054906101000a900473ffffffffffffffffffffffffffffffffffffffff1673ffffffffffffffffffffffffffffffffffffffff163373ffffffffffffffffffffffffffffffffffffffff16146120b3576040517f08c379a00000000000000000000000000000000000000000000000000000000081526004016120aa9061330e565b60405180910390fd5b5f60055f8481526020019081526020015f209050600360078111156120db576120da612b8a565b5b816003015f9054906101000a900460ff1660078111156120fe576120fd612b8a565b5b1461213e576040517f08c379a00000000000000000000000000000000000000000000000000000000081526004016121359061454f565b60405180910390fd5b6004816003015f6101000a81548160ff0219169083600781111561216557612164612b8a565b5b0217905550827f60f91a26281f20fb528663f4da55773c83e2ee8a7a5dddb6d1753749e81dc49b60405160405180910390a2505050565b6121a46124ad565b73ffffffffffffffffffffffffffffffffffffffff166121c2611a64565b73ffffffffffffffffffffffffffffffffffffffff1614612221576121e56124ad565b6040517f118cdaa700000000000000000000000000000000000000000000000000000000815260040161221891906131fc565b60405180910390fd5b565b600280540361225e576040517f3ee5aeb500000000000000000000000000000000000000000000000000000000815260040160405180910390fd5b60028081905550565b6001600281905550565b5f60065f8481526020019081526020015f205490505f81036122935750612351565b6003826fffffffffffffffffffffffffffffffff161061234f57600360055f8381526020019081526020015f206003015f6101000a81548160ff021916908360078111156122e4576122e3612b8a565b5b02179055504260055f8381526020019081526020015f2060060181905550807ffd5c48b60a567819336e24e93033bbbc2ef3da1d5ca1ae3306aaeb9dbb4b8018426040516123329190612f78565b60405180910390a260065f8481526020019081526020015f205f90555b505b5050565b5f60015f9054906101000a900473ffffffffffffffffffffffffffffffffffffffff1690508160015f6101000a81548173ffffffffffffffffffffffffffffffffffffffff021916908373ffffffffffffffffffffffffffffffffffffffff1602179055508173ffffffffffffffffffffffffffffffffffffffff168173ffffffffffffffffffffffffffffffffffffffff167f8be0079c531659141344cd1fd0a4f28419497f9722a3daafe3b4186f6b6457e060405160405180910390a35050565b612420612a57565b612473827f00000000000000000000000000000000000000000000000000000000000000005f5f8681526020019081526020015f205f9054906101000a900460e01b846124b4909392919063ffffffff16565b9050919050565b61249182846080015161256390919063ffffffff16565b6124a881846080015161256390919063ffffffff16565b505050565b5f33905090565b6124bc612a57565b6124cc8560800151610100612588565b5083855f01818152505082856020019073ffffffffffffffffffffffffffffffffffffffff16908173ffffffffffffffffffffffffffffffffffffffff16815250508185604001907bffffffffffffffffffffffffffffffffffffffffffffffffffffffff191690817bffffffffffffffffffffffffffffffffffffffffffffffffffffffff191681525050849050949350505050565b61257082600383516125f0565b612583818361277590919063ffffffff16565b505050565b612590612abd565b5f60208361259e919061459a565b146125ca576020826125b0919061459a565b60206125bc91906145ca565b826125c791906134ac565b91505b818360200181815250506040518084525f81528281016020016040525082905092915050565b60178167ffffffffffffffff1611612627576126218160058460ff16901b60ff16178461279690919063ffffffff16565b50612770565b60ff8167ffffffffffffffff161161267d57612656601860058460ff16901b178461279690919063ffffffff16565b506126778167ffffffffffffffff166001856127b59092919063ffffffff16565b5061276f565b61ffff8167ffffffffffffffff16116126d4576126ad601960058460ff16901b178461279690919063ffffffff16565b506126ce8167ffffffffffffffff166002856127b59092919063ffffffff16565b5061276e565b63ffffffff8167ffffffffffffffff161161272d57612706601a60058460ff16901b178461279690919063ffffffff16565b506127278167ffffffffffffffff166004856127b59092919063ffffffff16565b5061276d565b61274a601b60058460ff16901b178461279690919063ffffffff16565b5061276b8167ffffffffffffffff166008856127b59092919063ffffffff16565b505b5b5b5b505050565b61277d612abd565b61278e83845f0151518485516127d6565b905092915050565b61279e612abd565b6127ad83845f015151846128c2565b905092915050565b6127bd612abd565b6127cd84855f0151518585612918565b90509392505050565b6127de612abd565b82518211156127eb575f5ffd5b846020015182856127fc91906134ac565b1115612831576128308560026128218860200151888761281c91906134ac565b6129a5565b61282b91906145fd565b6129c0565b5b5f5f86518051876020830101935080888701111561284f5787860182525b60208701925050505b60208410612896578051825260208261287191906134ac565b915060208161288091906134ac565b905060208461288f91906145ca565b9350612858565b5f6001856020036101000a03905080198251168184511681811785525050508692505050949350505050565b6128ca612abd565b836020015183106128f0576128ef84600286602001516128ea91906145fd565b6129c0565b5b8351805160208583010184815381860361290b576001820183525b5050508390509392505050565b612920612abd565b8460200151848361293191906134ac565b111561295957612958856002868561294991906134ac565b61295391906145fd565b6129c0565b5b5f60018361010061296a919061476d565b61297491906145ca565b905085518386820101858319825116178152815185880111156129975784870182525b505085915050949350505050565b5f818311156129b6578290506129ba565b8190505b92915050565b5f825f015190506129d18383612588565b506129dc8382612775565b50505050565b6040518060e001604052805f73ffffffffffffffffffffffffffffffffffffffff1681526020015f73ffffffffffffffffffffffffffffffffffffffff1681526020015f81526020015f6007811115612a3e57612a3d612b8a565b5b81526020015f8152602001606081526020015f81525090565b6040518060a001604052805f81526020015f73ffffffffffffffffffffffffffffffffffffffff1681526020015f7bffffffffffffffffffffffffffffffffffffffffffffffffffffffff191681526020015f8152602001612ab7612abd565b81525090565b6040518060400160405280606081526020015f81525090565b5f5ffd5b5f5ffd5b5f819050919050565b612af081612ade565b8114612afa575f5ffd5b50565b5f81359050612b0b81612ae7565b92915050565b5f60208284031215612b2657612b25612ad6565b5b5f612b3384828501612afd565b91505092915050565b5f73ffffffffffffffffffffffffffffffffffffffff82169050919050565b5f612b6582612b3c565b9050919050565b612b7581612b5b565b82525050565b612b8481612ade565b82525050565b7f4e487b71000000000000000000000000000000000000000000000000000000005f52602160045260245ffd5b60088110612bc857612bc7612b8a565b5b50565b5f819050612bd882612bb7565b919050565b5f612be782612bcb565b9050919050565b612bf781612bdd565b82525050565b5f819050919050565b612c0f81612bfd565b82525050565b5f81519050919050565b5f82825260208201905092915050565b8281835e5f83830152505050565b5f601f19601f8301169050919050565b5f612c5782612c15565b612c618185612c1f565b9350612c71818560208601612c2f565b612c7a81612c3d565b840191505092915050565b5f60e082019050612c985f83018a612b6c565b612ca56020830189612b6c565b612cb26040830188612b7b565b612cbf6060830187612bee565b612ccc6080830186612c06565b81810360a0830152612cde8185612c4d565b9050612ced60c0830184612b7b565b98975050505050505050565b612d0281612bfd565b8114612d0c575f5ffd5b50565b5f81359050612d1d81612cf9565b92915050565b5f60208284031215612d3857612d37612ad6565b5b5f612d4584828501612d0f565b91505092915050565b612d5781612b5b565b82525050565b612d6681612ade565b82525050565b612d7581612bdd565b82525050565b612d8481612bfd565b82525050565b5f82825260208201905092915050565b5f612da482612c15565b612dae8185612d8a565b9350612dbe818560208601612c2f565b612dc781612c3d565b840191505092915050565b5f60e083015f830151612de75f860182612d4e565b506020830151612dfa6020860182612d4e565b506040830151612e0d6040860182612d5d565b506060830151612e206060860182612d6c565b506080830151612e336080860182612d7b565b5060a083015184820360a0860152612e4b8282612d9a565b91505060c0830151612e6060c0860182612d5d565b508091505092915050565b5f6020820190508181035f830152612e838184612dd2565b905092915050565b5f8115159050919050565b612e9f81612e8b565b8114612ea9575f5ffd5b50565b5f81359050612eba81612e96565b92915050565b5f5f60408385031215612ed657612ed5612ad6565b5b5f612ee385828601612afd565b9250506020612ef485828601612eac565b9150509250929050565b612f0781612b5b565b8114612f11575f5ffd5b50565b5f81359050612f2281612efe565b92915050565b5f5f5f60608486031215612f3f57612f3e612ad6565b5b5f612f4c86828701612f14565b9350506020612f5d86828701612afd565b9250506040612f6e86828701612d0f565b9150509250925092565b5f602082019050612f8b5f830184612b7b565b92915050565b5f819050919050565b5f612fb4612faf612faa84612b3c565b612f91565b612b3c565b9050919050565b5f612fc582612f9a565b9050919050565b5f612fd682612fbb565b9050919050565b612fe681612fcc565b82525050565b5f602082019050612fff5f830184612fdd565b92915050565b5f6fffffffffffffffffffffffffffffffff82169050919050565b61302981613005565b8114613033575f5ffd5b50565b5f8135905061304481613020565b92915050565b5f5f604083850312156130605761305f612ad6565b5b5f61306d85828601612afd565b925050602061307e85828601613036565b9150509250929050565b5f60208201905061309b5f830184612c06565b92915050565b5f5ffd5b5f5ffd5b5f5ffd5b5f5f83601f8401126130c2576130c16130a1565b5b8235905067ffffffffffffffff8111156130df576130de6130a5565b5b6020830191508360018202830111156130fb576130fa6130a9565b5b9250929050565b5f67ffffffffffffffff82169050919050565b61311e81613102565b8114613128575f5ffd5b50565b5f8135905061313981613115565b92915050565b5f63ffffffff82169050919050565b6131578161313f565b8114613161575f5ffd5b50565b5f813590506131728161314e565b92915050565b5f5f5f5f5f6080868803121561319157613190612ad6565b5b5f61319e88828901612afd565b955050602086013567ffffffffffffffff8111156131bf576131be612ada565b5b6131cb888289016130ad565b945094505060406131de8882890161312b565b92505060606131ef88828901613164565b9150509295509295909350565b5f60208201905061320f5f830184612b6c565b92915050565b5f5f6020838503121561322b5761322a612ad6565b5b5f83013567ffffffffffffffff81111561324857613247612ada565b5b613254858286016130ad565b92509250509250929050565b5f61326a82612fbb565b9050919050565b61327a81613260565b82525050565b5f6020820190506132935f830184613271565b92915050565b5f602082840312156132ae576132ad612ad6565b5b5f6132bb84828501612f14565b91505092915050565b7f4454453a2043616c6c6572206973206e6f7420746865206275796572000000005f82015250565b5f6132f8601c83612c1f565b9150613303826132c4565b602082019050919050565b5f6020820190508181035f830152613325816132ec565b9050919050565b7f4454453a2043616e206f6e6c792063616e63656c206120747261646520696e205f8201527f4372656174656420737461746500000000000000000000000000000000000000602082015250565b5f613386602d83612c1f565b91506133918261332c565b604082019050919050565b5f6020820190508181035f8301526133b38161337a565b9050919050565b7f4e487b71000000000000000000000000000000000000000000000000000000005f52602260045260245ffd5b5f60028204905060018216806133fe57607f821691505b602082108103613411576134106133ba565b5b50919050565b7f4454453a2043616c6c6572206973206e6f74207468652073656c6c65720000005f82015250565b5f61344b601d83612c1f565b915061345682613417565b602082019050919050565b5f6020820190508181035f8301526134788161343f565b9050919050565b7f4e487b71000000000000000000000000000000000000000000000000000000005f52601160045260245ffd5b5f6134b682612ade565b91506134c183612ade565b92508282019050808211156134d9576134d861347f565b5b92915050565b7f4454453a205769746864726177616c20636f6e646974696f6e73206e6f74206d5f8201527f6574000000000000000000000000000000000000000000000000000000000000602082015250565b5f613539602283612c1f565b9150613544826134df565b604082019050919050565b5f6020820190508181035f8301526135668161352d565b9050919050565b5f6040820190506135805f830185612b6c565b61358d6020830184612b7b565b9392505050565b5f815190506135a281612e96565b92915050565b5f602082840312156135bd576135bc612ad6565b5b5f6135ca84828501613594565b91505092915050565b7f4454453a20546f6b656e207472616e73666572206661696c65640000000000005f82015250565b5f613607601a83612c1f565b9150613612826135d3565b602082019050919050565b5f6020820190508181035f830152613634816135fb565b9050919050565b7f4454453a205472616465206e6f7420696e2044697370757465642073746174655f82015250565b5f61366f602083612c1f565b915061367a8261363b565b602082019050919050565b5f6020820190508181035f83015261369c81613663565b9050919050565b7f4454453a204661696c656420746f20726566756e6420746f20627579657200005f82015250565b5f6136d7601e83612c1f565b91506136e2826136a3565b602082019050919050565b5f6020820190508181035f830152613704816136cb565b9050919050565b7f4454453a204661696c656420746f207472616e7366657220746f2073656c6c655f8201527f7200000000000000000000000000000000000000000000000000000000000000602082015250565b5f613765602183612c1f565b91506137708261370b565b604082019050919050565b5f6020820190508181035f83015261379281613759565b9050919050565b6137a281612e8b565b82525050565b5f6020820190506137bb5f830184613799565b92915050565b7f4454453a2053656c6c657220616464726573732063616e6e6f74206265207a655f8201527f726f000000000000000000000000000000000000000000000000000000000000602082015250565b5f61381b602283612c1f565b9150613826826137c1565b604082019050919050565b5f6020820190508181035f8301526138488161380f565b9050919050565b7f4454453a20416d6f756e74206d7573742062652067726561746572207468616e5f8201527f207a65726f000000000000000000000000000000000000000000000000000000602082015250565b5f6138a9602583612c1f565b91506138b48261384f565b604082019050919050565b5f6020820190508181035f8301526138d68161389d565b9050919050565b5f6138e782612ade565b91507fffffffffffffffffffffffffffffffffffffffffffffffffffffffffffffffff82036139195761391861347f565b5b600182019050919050565b7f4e487b71000000000000000000000000000000000000000000000000000000005f52604160045260245ffd5b5f819050815f5260205f209050919050565b5f6020601f8301049050919050565b5f82821b905092915050565b5f600883026139ad7fffffffffffffffffffffffffffffffffffffffffffffffffffffffffffffffff82613972565b6139b78683613972565b95508019841693508086168417925050509392505050565b5f6139e96139e46139df84612ade565b612f91565b612ade565b9050919050565b5f819050919050565b613a02836139cf565b613a16613a0e826139f0565b84845461397e565b825550505050565b5f5f905090565b613a2d613a1e565b613a388184846139f9565b505050565b5b81811015613a5b57613a505f82613a25565b600181019050613a3e565b5050565b601f821115613aa057613a7181613951565b613a7a84613963565b81016020851015613a89578190505b613a9d613a9585613963565b830182613a3d565b50505b505050565b5f82821c905092915050565b5f613ac05f1984600802613aa5565b1980831691505092915050565b5f613ad88383613ab1565b9150826002028217905092915050565b613af182612c15565b67ffffffffffffffff811115613b0a57613b09613924565b5b613b1482546133e7565b613b1f828285613a5f565b5f60209050601f831160018114613b50575f8415613b3e578287015190505b613b488582613acd565b865550613baf565b601f198416613b5e86613951565b5f5b82811015613b8557848901518255600182019150602085019450602081019050613b60565b86831015613ba25784890151613b9e601f891682613ab1565b8355505b6001600288020188555050505b505050505050565b5f604082019050613bca5f830185612b7b565b613bd76020830184612c06565b9392505050565b5f604082019050613bf15f830185612b6c565b613bfe6020830184612b6c565b9392505050565b7f4454453a2043616e206f6e6c792063616e63656c206120747261646520696e205f8201527f4465706f73697465642073746174650000000000000000000000000000000000602082015250565b5f613c5f602f83612c1f565b9150613c6a82613c05565b604082019050919050565b5f6020820190508181035f830152613c8c81613c53565b9050919050565b7f4454453a205472616465206e6f7420696e204465706f736974656420737461745f8201527f6500000000000000000000000000000000000000000000000000000000000000602082015250565b5f613ced602183612c1f565b9150613cf882613c93565b604082019050919050565b5f6020820190508181035f830152613d1a81613ce1565b9050919050565b7f4454453a20547261636b696e67206e756d6265722063616e6e6f7420626520655f8201527f6d70747900000000000000000000000000000000000000000000000000000000602082015250565b5f613d7b602483612c1f565b9150613d8682613d21565b604082019050919050565b5f6020820190508181035f830152613da881613d6f565b9050919050565b7f4454453a20547261636b696e6720415049206b6579206e6f74207365740000005f82015250565b5f613de3601d83612c1f565b9150613dee82613daf565b602082019050919050565b5f6020820190508181035f830152613e1081613dd7565b9050919050565b5f82905092915050565b613e2b8383613e17565b67ffffffffffffffff811115613e4457613e43613924565b5b613e4e82546133e7565b613e59828285613a5f565b5f601f831160018114613e86575f8415613e74578287013590505b613e7e8582613acd565b865550613ee5565b601f198416613e9486613951565b5f5b82811015613ebb57848901358255600182019150602085019450602081019050613e96565b86831015613ed85784890135613ed4601f891682613ab1565b8355505b6001600288020188555050505b50505050505050565b5f81905092915050565b7f75696e74313238000000000000000000000000000000000000000000000000005f82015250565b5f613f2c600783613eee565b9150613f3782613ef8565b600782019050919050565b5f613f4c82613f20565b9150819050919050565b7f68747470733a2f2f696e666f2e7377656574747261636b65722e636f2e6b722f5f8201527f6170692f76312f747261636b696e67496e666f3f745f636f64653d303126745f60208201527f696e766f6963653d000000000000000000000000000000000000000000000000604082015250565b5f613fd6604883613eee565b9150613fe182613f56565b604882019050919050565b828183375f83830152505050565b5f6140058385613eee565b9350614012838584613fec565b82840190509392505050565b7f26745f6b65793d00000000000000000000000000000000000000000000000000815250565b5f8154614050816133e7565b61405a8186613eee565b9450600182165f81146140745760018114614089576140bb565b60ff19831686528115158202860193506140bb565b61409285613951565b5f5b838110156140b357815481890152600182019150602081019050614094565b838801955050505b50505092915050565b5f6140ce82613fca565b91506140db828587613ffa565b91506140e68261401e565b6007820191506140f68284614044565b9150819050949350505050565b5f7fffffffff0000000000000000000000000000000000000000000000000000000082169050919050565b61413781614103565b82525050565b5f81519050919050565b5f82825260208201905092915050565b5f6141618261413d565b61416b8185614147565b935061417b818560208601612c2f565b61418481612c3d565b840191505092915050565b5f604083015f8301518482035f8601526141a98282614157565b91505060208301516141be6020860182612d5d565b508091505092915050565b5f60a083015f8301516141de5f860182612d7b565b5060208301516141f16020860182612d4e565b506040830151614204604086018261412e565b5060608301516142176060860182612d5d565b506080830151848203608086015261422f828261418f565b9150508091505092915050565b6142458161313f565b82525050565b61425481613102565b82525050565b5f60ff82169050919050565b61426f8161425a565b82525050565b5f6080820190508181035f83015261428d81876141c9565b905061429c602083018661423c565b6142a9604083018561424b565b6142b66060830184614266565b95945050505050565b5f815190506142cd81612ae7565b92915050565b5f602082840312156142e8576142e7612ad6565b5b5f6142f5848285016142bf565b91505092915050565b5f6143098385612c1f565b9350614316838584613fec565b61431f83612c3d565b840190509392505050565b5f6020820190508181035f8301526143438184866142fe565b90509392505050565b7f4454453a2043616e206f6e6c79206469737075746520696e2044656c697665725f8201527f6564207374617465000000000000000000000000000000000000000000000000602082015250565b5f6143a6602883612c1f565b91506143b18261434c565b604082019050919050565b5f6020820190508181035f8301526143d38161439a565b9050919050565b7f4454453a204469737075746520706572696f64206973206f76657200000000005f82015250565b5f61440e601b83612c1f565b9150614419826143da565b602082019050919050565b5f6020820190508181035f83015261443b81614402565b9050919050565b7f4454453a205472616465206e6f7420696e2043726561746564207374617465005f82015250565b5f614476601f83612c1f565b915061448182614442565b602082019050919050565b5f6020820190508181035f8301526144a38161446a565b9050919050565b5f6060820190506144bd5f830186612b6c565b6144ca6020830185612b6c565b6144d76040830184612b7b565b949350505050565b7f4454453a205472616465206e6f7420696e2044656c69766572656420737461745f8201527f6500000000000000000000000000000000000000000000000000000000000000602082015250565b5f614539602183612c1f565b9150614544826144df565b604082019050919050565b5f6020820190508181035f8301526145668161452d565b9050919050565b7f4e487b71000000000000000000000000000000000000000000000000000000005f52601260045260245ffd5b5f6145a482612ade565b91506145af83612ade565b9250826145bf576145be61456d565b5b828206905092915050565b5f6145d482612ade565b91506145df83612ade565b92508282039050818111156145f7576145f661347f565b5b92915050565b5f61460782612ade565b915061461283612ade565b925082820261462081612ade565b915082820484148315176146375761463661347f565b5b5092915050565b5f8160011c9050919050565b5f5f8291508390505b60018511156146935780860481111561466f5761466e61347f565b5b600185161561467e5780820291505b808102905061468c8561463e565b9450614653565b94509492505050565b5f826146ab5760019050614766565b816146b8575f9050614766565b81600181146146ce57600281146146d857614707565b6001915050614766565b60ff8411156146ea576146e961347f565b5b8360020a9150848211156147015761470061347f565b5b50614766565b5060208310610133831016604e8410600b841016171561473c5782820a9050838111156147375761473661347f565b5b614766565b614749848484600161464a565b925090508184048111156147605761475f61347f565b5b81810290505b9392505050565b5f61477782612ade565b915061478283612ade565b92506147af7fffffffffffffffffffffffffffffffffffffffffffffffffffffffffffffffff848461469c565b90509291505056fea2646970667358221220b49fe6a3b71c47b7d4f3db5a7750cf0fdb53d66ea89a102b20076956d528c88964736f6c634300081e0033","linkReferences":{}},"methodIdentifiers":{"COORDINATOR()":"3b2bcbf1","STABLE_KRW_ADDRESS()":"eb0fc59c","cancelBySellerAfterDeposit(uint256)":"6984781b","cancelTradeByBuyer(uint256)":"0aa38213","confirmDelivery(uint256)":"fd84cb97","createTrade(address,uint256,bytes32)":"383605f3","deliveryTrackingJobId()":"566ae9a1","deposit(uint256)":"b6b55f25","disputePeriod()":"5bf31d4d","getTrade(uint256)":"2db25e05","owner()":"8da5cb5b","raiseDispute(uint256)":"a5c1674e","rawFulfillDataRequest(uint256,uint128)":"45b9b6fb","renounceOwnership()":"715018a6","requestToTradeId(uint256)":"81ec8fed","resolveDispute(uint256,bool)":"34b25ee2","setDeliveryTrackingJobId(bytes32)":"2552b4ba","setDisputePeriod(uint256)":"a83ba53e","setTrackingApiKey(string)":"e5a68cb6","submitTrackingInfo(uint256,string,uint64,uint32)":"8ba19317","tradeCounter()":"660d15b5","trades(uint256)":"1e6c598e","transferOwnership(address)":"f2fde38b","withdraw(uint256)":"2e1a7d4d"},"id":31}